{
	"contracts/Array.sol": {
		"ArrayReplacefromEnd": {
			"abi": [
				{
					"inputs": [
						{
							"internalType": "uint256",
							"name": "",
							"type": "uint256"
						}
					],
					"name": "arr",
					"outputs": [
						{
							"internalType": "uint256",
							"name": "",
							"type": "uint256"
						}
					],
					"stateMutability": "view",
					"type": "function"
				},
				{
					"inputs": [],
					"name": "getArr",
					"outputs": [
						{
							"internalType": "uint256[]",
							"name": "",
							"type": "uint256[]"
						}
					],
					"stateMutability": "view",
					"type": "function"
				},
				{
					"inputs": [
						{
							"internalType": "uint256",
							"name": "_index",
							"type": "uint256"
						}
					],
					"name": "remove",
					"outputs": [],
					"stateMutability": "nonpayable",
					"type": "function"
				},
				{
					"inputs": [],
					"name": "test",
					"outputs": [],
					"stateMutability": "nonpayable",
					"type": "function"
				}
			],
			"devdoc": {
				"kind": "dev",
				"methods": {},
				"version": 1
			},
			"evm": {
				"assembly": "    /* \"contracts/Array.sol\":2153:2793  contract ArrayReplacefromEnd {... */\n  mstore(0x40, 0x80)\n  callvalue\n  dup1\n  iszero\n  tag_1\n  jumpi\n  0x00\n  dup1\n  revert\ntag_1:\n  pop\n  dataSize(sub_0)\n  dup1\n  dataOffset(sub_0)\n  0x00\n  codecopy\n  0x00\n  return\nstop\n\nsub_0: assembly {\n        /* \"contracts/Array.sol\":2153:2793  contract ArrayReplacefromEnd {... */\n      mstore(0x40, 0x80)\n      callvalue\n      dup1\n      iszero\n      tag_1\n      jumpi\n      0x00\n      dup1\n      revert\n    tag_1:\n      pop\n      jumpi(tag_2, lt(calldatasize, 0x04))\n      shr(0xe0, calldataload(0x00))\n      dup1\n      0x4cc82215\n      eq\n      tag_3\n      jumpi\n      dup1\n      0x71e5ee5f\n      eq\n      tag_4\n      jumpi\n      dup1\n      0xf8a8fd6d\n      eq\n      tag_5\n      jumpi\n      dup1\n      0xfb8cbced\n      eq\n      tag_6\n      jumpi\n    tag_2:\n      0x00\n      dup1\n      revert\n        /* \"contracts/Array.sol\":2403:2607  function remove(uint _index) public {... */\n    tag_3:\n      tag_7\n      0x04\n      dup1\n      calldatasize\n      sub\n      dup2\n      add\n      swap1\n      tag_8\n      swap2\n      swap1\n      tag_9\n      jump\t// in\n    tag_8:\n      tag_10\n      jump\t// in\n    tag_7:\n      stop\n        /* \"contracts/Array.sol\":2195:2212  uint[] public arr */\n    tag_4:\n      tag_11\n      0x04\n      dup1\n      calldatasize\n      sub\n      dup2\n      add\n      swap1\n      tag_12\n      swap2\n      swap1\n      tag_9\n      jump\t// in\n    tag_12:\n      tag_13\n      jump\t// in\n    tag_11:\n      mload(0x40)\n      tag_14\n      swap2\n      swap1\n      tag_15\n      jump\t// in\n    tag_14:\n      mload(0x40)\n      dup1\n      swap2\n      sub\n      swap1\n      return\n        /* \"contracts/Array.sol\":2615:2694  function test() public {... */\n    tag_5:\n      tag_16\n      tag_17\n      jump\t// in\n    tag_16:\n      stop\n        /* \"contracts/Array.sol\":2706:2790  function getArr() public view returns (uint[] memory) {... */\n    tag_6:\n      tag_18\n      tag_19\n      jump\t// in\n    tag_18:\n      mload(0x40)\n      tag_20\n      swap2\n      swap1\n      tag_21\n      jump\t// in\n    tag_20:\n      mload(0x40)\n      dup1\n      swap2\n      sub\n      swap1\n      return\n        /* \"contracts/Array.sol\":2403:2607  function remove(uint _index) public {... */\n    tag_10:\n        /* \"contracts/Array.sol\":2524:2527  arr */\n      0x00\n        /* \"contracts/Array.sol\":2540:2541  1 */\n      0x01\n        /* \"contracts/Array.sol\":2528:2531  arr */\n      0x00\n        /* \"contracts/Array.sol\":2528:2538  arr.length */\n      dup1\n      sload\n      swap1\n      pop\n        /* \"contracts/Array.sol\":2528:2541  arr.length -1 */\n      tag_23\n      swap2\n      swap1\n      tag_24\n      jump\t// in\n    tag_23:\n        /* \"contracts/Array.sol\":2524:2542  arr[arr.length -1] */\n      dup2\n      sload\n      dup2\n      lt\n      tag_25\n      jumpi\n      tag_26\n      tag_27\n      jump\t// in\n    tag_26:\n    tag_25:\n      swap1\n      0x00\n      mstore\n      keccak256(0x00, 0x20)\n      add\n      sload\n        /* \"contracts/Array.sol\":2510:2513  arr */\n      0x00\n        /* \"contracts/Array.sol\":2514:2520  _index */\n      dup3\n        /* \"contracts/Array.sol\":2510:2521  arr[_index] */\n      dup2\n      sload\n      dup2\n      lt\n      tag_29\n      jumpi\n      tag_30\n      tag_27\n      jump\t// in\n    tag_30:\n    tag_29:\n      swap1\n      0x00\n      mstore\n      keccak256(0x00, 0x20)\n      add\n        /* \"contracts/Array.sol\":2510:2542  arr[_index] = arr[arr.length -1] */\n      dup2\n      swap1\n      sstore\n      pop\n        /* \"contracts/Array.sol\":2590:2593  arr */\n      0x00\n        /* \"contracts/Array.sol\":2590:2599  arr.pop() */\n      dup1\n      sload\n      dup1\n      tag_32\n      jumpi\n      tag_33\n      tag_34\n      jump\t// in\n    tag_33:\n    tag_32:\n      0x01\n      swap1\n      sub\n      dup2\n      dup2\n      swap1\n      0x00\n      mstore\n      keccak256(0x00, 0x20)\n      add\n      0x00\n      swap1\n      sstore\n      swap1\n      sstore\n        /* \"contracts/Array.sol\":2403:2607  function remove(uint _index) public {... */\n      pop\n      jump\t// out\n        /* \"contracts/Array.sol\":2195:2212  uint[] public arr */\n    tag_13:\n      0x00\n      dup2\n      dup2\n      sload\n      dup2\n      lt\n      tag_36\n      jumpi\n      0x00\n      dup1\n      revert\n    tag_36:\n      swap1\n      0x00\n      mstore\n      keccak256(0x00, 0x20)\n      add\n      0x00\n      swap2\n      pop\n      swap1\n      pop\n      sload\n      dup2\n      jump\t// out\n        /* \"contracts/Array.sol\":2615:2694  function test() public {... */\n    tag_17:\n        /* \"contracts/Array.sol\":2649:2664  arr = [1,2,3,4] */\n      mload(0x40)\n      dup1\n      0x80\n      add\n      0x40\n      mstore\n      dup1\n        /* \"contracts/Array.sol\":2656:2657  1 */\n      0x01\n        /* \"contracts/Array.sol\":2649:2664  arr = [1,2,3,4] */\n      0xff\n      and\n      dup2\n      mstore\n      0x20\n      add\n        /* \"contracts/Array.sol\":2658:2659  2 */\n      0x02\n        /* \"contracts/Array.sol\":2649:2664  arr = [1,2,3,4] */\n      0xff\n      and\n      dup2\n      mstore\n      0x20\n      add\n        /* \"contracts/Array.sol\":2660:2661  3 */\n      0x03\n        /* \"contracts/Array.sol\":2649:2664  arr = [1,2,3,4] */\n      0xff\n      and\n      dup2\n      mstore\n      0x20\n      add\n        /* \"contracts/Array.sol\":2662:2663  4 */\n      0x04\n        /* \"contracts/Array.sol\":2649:2664  arr = [1,2,3,4] */\n      0xff\n      and\n      dup2\n      mstore\n      pop\n        /* \"contracts/Array.sol\":2649:2652  arr */\n      0x00\n        /* \"contracts/Array.sol\":2649:2664  arr = [1,2,3,4] */\n      swap1\n      0x04\n      tag_39\n      swap3\n      swap2\n      swap1\n      tag_40\n      jump\t// in\n    tag_39:\n      pop\n        /* \"contracts/Array.sol\":2677:2686  remove(1) */\n      tag_41\n        /* \"contracts/Array.sol\":2684:2685  1 */\n      0x01\n        /* \"contracts/Array.sol\":2677:2683  remove */\n      tag_10\n        /* \"contracts/Array.sol\":2677:2686  remove(1) */\n      jump\t// in\n    tag_41:\n        /* \"contracts/Array.sol\":2615:2694  function test() public {... */\n      jump\t// out\n        /* \"contracts/Array.sol\":2706:2790  function getArr() public view returns (uint[] memory) {... */\n    tag_19:\n        /* \"contracts/Array.sol\":2745:2758  uint[] memory */\n      0x60\n        /* \"contracts/Array.sol\":2779:2782  arr */\n      0x00\n        /* \"contracts/Array.sol\":2771:2782  return  arr */\n      dup1\n      sload\n      dup1\n      0x20\n      mul\n      0x20\n      add\n      mload(0x40)\n      swap1\n      dup2\n      add\n      0x40\n      mstore\n      dup1\n      swap3\n      swap2\n      swap1\n      dup2\n      dup2\n      mstore\n      0x20\n      add\n      dup3\n      dup1\n      sload\n      dup1\n      iszero\n      tag_43\n      jumpi\n      0x20\n      mul\n      dup3\n      add\n      swap2\n      swap1\n      0x00\n      mstore\n      keccak256(0x00, 0x20)\n      swap1\n    tag_44:\n      dup2\n      sload\n      dup2\n      mstore\n      0x20\n      add\n      swap1\n      0x01\n      add\n      swap1\n      dup1\n      dup4\n      gt\n      tag_44\n      jumpi\n    tag_43:\n      pop\n      pop\n      pop\n      pop\n      pop\n      swap1\n      pop\n        /* \"contracts/Array.sol\":2706:2790  function getArr() public view returns (uint[] memory) {... */\n      swap1\n      jump\t// out\n    tag_40:\n      dup3\n      dup1\n      sload\n      dup3\n      dup3\n      sstore\n      swap1\n      0x00\n      mstore\n      keccak256(0x00, 0x20)\n      swap1\n      dup2\n      add\n      swap3\n      dup3\n      iszero\n      tag_45\n      jumpi\n      swap2\n      0x20\n      mul\n      dup3\n      add\n    tag_46:\n      dup3\n      dup2\n      gt\n      iszero\n      tag_47\n      jumpi\n      dup3\n      mload\n      dup3\n      swap1\n      0xff\n      and\n      swap1\n      sstore\n      swap2\n      0x20\n      add\n      swap2\n      swap1\n      0x01\n      add\n      swap1\n      jump(tag_46)\n    tag_47:\n    tag_45:\n      pop\n      swap1\n      pop\n      tag_48\n      swap2\n      swap1\n      tag_49\n      jump\t// in\n    tag_48:\n      pop\n      swap1\n      jump\t// out\n    tag_49:\n    tag_50:\n      dup1\n      dup3\n      gt\n      iszero\n      tag_51\n      jumpi\n      0x00\n      dup2\n      0x00\n      swap1\n      sstore\n      pop\n      0x01\n      add\n      jump(tag_50)\n    tag_51:\n      pop\n      swap1\n      jump\t// out\n        /* \"#utility.yul\":88:205   */\n    tag_53:\n        /* \"#utility.yul\":197:198   */\n      0x00\n        /* \"#utility.yul\":194:195   */\n      dup1\n        /* \"#utility.yul\":187:199   */\n      revert\n        /* \"#utility.yul\":334:411   */\n    tag_55:\n        /* \"#utility.yul\":371:378   */\n      0x00\n        /* \"#utility.yul\":400:405   */\n      dup2\n        /* \"#utility.yul\":389:405   */\n      swap1\n      pop\n        /* \"#utility.yul\":334:411   */\n      swap2\n      swap1\n      pop\n      jump\t// out\n        /* \"#utility.yul\":417:539   */\n    tag_56:\n        /* \"#utility.yul\":490:514   */\n      tag_73\n        /* \"#utility.yul\":508:513   */\n      dup2\n        /* \"#utility.yul\":490:514   */\n      tag_55\n      jump\t// in\n    tag_73:\n        /* \"#utility.yul\":483:488   */\n      dup2\n        /* \"#utility.yul\":480:515   */\n      eq\n        /* \"#utility.yul\":470:533   */\n      tag_74\n      jumpi\n        /* \"#utility.yul\":529:530   */\n      0x00\n        /* \"#utility.yul\":526:527   */\n      dup1\n        /* \"#utility.yul\":519:531   */\n      revert\n        /* \"#utility.yul\":470:533   */\n    tag_74:\n        /* \"#utility.yul\":417:539   */\n      pop\n      jump\t// out\n        /* \"#utility.yul\":545:684   */\n    tag_57:\n        /* \"#utility.yul\":591:596   */\n      0x00\n        /* \"#utility.yul\":629:635   */\n      dup2\n        /* \"#utility.yul\":616:636   */\n      calldataload\n        /* \"#utility.yul\":607:636   */\n      swap1\n      pop\n        /* \"#utility.yul\":645:678   */\n      tag_76\n        /* \"#utility.yul\":672:677   */\n      dup2\n        /* \"#utility.yul\":645:678   */\n      tag_56\n      jump\t// in\n    tag_76:\n        /* \"#utility.yul\":545:684   */\n      swap3\n      swap2\n      pop\n      pop\n      jump\t// out\n        /* \"#utility.yul\":690:1019   */\n    tag_9:\n        /* \"#utility.yul\":749:755   */\n      0x00\n        /* \"#utility.yul\":798:800   */\n      0x20\n        /* \"#utility.yul\":786:795   */\n      dup3\n        /* \"#utility.yul\":777:784   */\n      dup5\n        /* \"#utility.yul\":773:796   */\n      sub\n        /* \"#utility.yul\":769:801   */\n      slt\n        /* \"#utility.yul\":766:885   */\n      iszero\n      tag_78\n      jumpi\n        /* \"#utility.yul\":804:883   */\n      tag_79\n      tag_53\n      jump\t// in\n    tag_79:\n        /* \"#utility.yul\":766:885   */\n    tag_78:\n        /* \"#utility.yul\":924:925   */\n      0x00\n        /* \"#utility.yul\":949:1002   */\n      tag_80\n        /* \"#utility.yul\":994:1001   */\n      dup5\n        /* \"#utility.yul\":985:991   */\n      dup3\n        /* \"#utility.yul\":974:983   */\n      dup6\n        /* \"#utility.yul\":970:992   */\n      add\n        /* \"#utility.yul\":949:1002   */\n      tag_57\n      jump\t// in\n    tag_80:\n        /* \"#utility.yul\":939:1002   */\n      swap2\n      pop\n        /* \"#utility.yul\":895:1012   */\n      pop\n        /* \"#utility.yul\":690:1019   */\n      swap3\n      swap2\n      pop\n      pop\n      jump\t// out\n        /* \"#utility.yul\":1025:1143   */\n    tag_58:\n        /* \"#utility.yul\":1112:1136   */\n      tag_82\n        /* \"#utility.yul\":1130:1135   */\n      dup2\n        /* \"#utility.yul\":1112:1136   */\n      tag_55\n      jump\t// in\n    tag_82:\n        /* \"#utility.yul\":1107:1110   */\n      dup3\n        /* \"#utility.yul\":1100:1137   */\n      mstore\n        /* \"#utility.yul\":1025:1143   */\n      pop\n      pop\n      jump\t// out\n        /* \"#utility.yul\":1149:1371   */\n    tag_15:\n        /* \"#utility.yul\":1242:1246   */\n      0x00\n        /* \"#utility.yul\":1280:1282   */\n      0x20\n        /* \"#utility.yul\":1269:1278   */\n      dup3\n        /* \"#utility.yul\":1265:1283   */\n      add\n        /* \"#utility.yul\":1257:1283   */\n      swap1\n      pop\n        /* \"#utility.yul\":1293:1364   */\n      tag_84\n        /* \"#utility.yul\":1361:1362   */\n      0x00\n        /* \"#utility.yul\":1350:1359   */\n      dup4\n        /* \"#utility.yul\":1346:1363   */\n      add\n        /* \"#utility.yul\":1337:1343   */\n      dup5\n        /* \"#utility.yul\":1293:1364   */\n      tag_58\n      jump\t// in\n    tag_84:\n        /* \"#utility.yul\":1149:1371   */\n      swap3\n      swap2\n      pop\n      pop\n      jump\t// out\n        /* \"#utility.yul\":1377:1491   */\n    tag_59:\n        /* \"#utility.yul\":1444:1450   */\n      0x00\n        /* \"#utility.yul\":1478:1483   */\n      dup2\n        /* \"#utility.yul\":1472:1484   */\n      mload\n        /* \"#utility.yul\":1462:1484   */\n      swap1\n      pop\n        /* \"#utility.yul\":1377:1491   */\n      swap2\n      swap1\n      pop\n      jump\t// out\n        /* \"#utility.yul\":1497:1681   */\n    tag_60:\n        /* \"#utility.yul\":1596:1607   */\n      0x00\n        /* \"#utility.yul\":1630:1636   */\n      dup3\n        /* \"#utility.yul\":1625:1628   */\n      dup3\n        /* \"#utility.yul\":1618:1637   */\n      mstore\n        /* \"#utility.yul\":1670:1674   */\n      0x20\n        /* \"#utility.yul\":1665:1668   */\n      dup3\n        /* \"#utility.yul\":1661:1675   */\n      add\n        /* \"#utility.yul\":1646:1675   */\n      swap1\n      pop\n        /* \"#utility.yul\":1497:1681   */\n      swap3\n      swap2\n      pop\n      pop\n      jump\t// out\n        /* \"#utility.yul\":1687:1819   */\n    tag_61:\n        /* \"#utility.yul\":1754:1758   */\n      0x00\n        /* \"#utility.yul\":1777:1780   */\n      dup2\n        /* \"#utility.yul\":1769:1780   */\n      swap1\n      pop\n        /* \"#utility.yul\":1807:1811   */\n      0x20\n        /* \"#utility.yul\":1802:1805   */\n      dup3\n        /* \"#utility.yul\":1798:1812   */\n      add\n        /* \"#utility.yul\":1790:1812   */\n      swap1\n      pop\n        /* \"#utility.yul\":1687:1819   */\n      swap2\n      swap1\n      pop\n      jump\t// out\n        /* \"#utility.yul\":1825:1933   */\n    tag_62:\n        /* \"#utility.yul\":1902:1926   */\n      tag_89\n        /* \"#utility.yul\":1920:1925   */\n      dup2\n        /* \"#utility.yul\":1902:1926   */\n      tag_55\n      jump\t// in\n    tag_89:\n        /* \"#utility.yul\":1897:1900   */\n      dup3\n        /* \"#utility.yul\":1890:1927   */\n      mstore\n        /* \"#utility.yul\":1825:1933   */\n      pop\n      pop\n      jump\t// out\n        /* \"#utility.yul\":1939:2118   */\n    tag_63:\n        /* \"#utility.yul\":2008:2018   */\n      0x00\n        /* \"#utility.yul\":2029:2075   */\n      tag_91\n        /* \"#utility.yul\":2071:2074   */\n      dup4\n        /* \"#utility.yul\":2063:2069   */\n      dup4\n        /* \"#utility.yul\":2029:2075   */\n      tag_62\n      jump\t// in\n    tag_91:\n        /* \"#utility.yul\":2107:2111   */\n      0x20\n        /* \"#utility.yul\":2102:2105   */\n      dup4\n        /* \"#utility.yul\":2098:2112   */\n      add\n        /* \"#utility.yul\":2084:2112   */\n      swap1\n      pop\n        /* \"#utility.yul\":1939:2118   */\n      swap3\n      swap2\n      pop\n      pop\n      jump\t// out\n        /* \"#utility.yul\":2124:2237   */\n    tag_64:\n        /* \"#utility.yul\":2194:2198   */\n      0x00\n        /* \"#utility.yul\":2226:2230   */\n      0x20\n        /* \"#utility.yul\":2221:2224   */\n      dup3\n        /* \"#utility.yul\":2217:2231   */\n      add\n        /* \"#utility.yul\":2209:2231   */\n      swap1\n      pop\n        /* \"#utility.yul\":2124:2237   */\n      swap2\n      swap1\n      pop\n      jump\t// out\n        /* \"#utility.yul\":2273:3005   */\n    tag_65:\n        /* \"#utility.yul\":2392:2395   */\n      0x00\n        /* \"#utility.yul\":2421:2475   */\n      tag_94\n        /* \"#utility.yul\":2469:2474   */\n      dup3\n        /* \"#utility.yul\":2421:2475   */\n      tag_59\n      jump\t// in\n    tag_94:\n        /* \"#utility.yul\":2491:2577   */\n      tag_95\n        /* \"#utility.yul\":2570:2576   */\n      dup2\n        /* \"#utility.yul\":2565:2568   */\n      dup6\n        /* \"#utility.yul\":2491:2577   */\n      tag_60\n      jump\t// in\n    tag_95:\n        /* \"#utility.yul\":2484:2577   */\n      swap4\n      pop\n        /* \"#utility.yul\":2601:2657   */\n      tag_96\n        /* \"#utility.yul\":2651:2656   */\n      dup4\n        /* \"#utility.yul\":2601:2657   */\n      tag_61\n      jump\t// in\n    tag_96:\n        /* \"#utility.yul\":2680:2687   */\n      dup1\n        /* \"#utility.yul\":2711:2712   */\n      0x00\n        /* \"#utility.yul\":2696:2980   */\n    tag_97:\n        /* \"#utility.yul\":2721:2727   */\n      dup4\n        /* \"#utility.yul\":2718:2719   */\n      dup2\n        /* \"#utility.yul\":2715:2728   */\n      lt\n        /* \"#utility.yul\":2696:2980   */\n      iszero\n      tag_99\n      jumpi\n        /* \"#utility.yul\":2797:2803   */\n      dup2\n        /* \"#utility.yul\":2791:2804   */\n      mload\n        /* \"#utility.yul\":2824:2887   */\n      tag_100\n        /* \"#utility.yul\":2883:2886   */\n      dup9\n        /* \"#utility.yul\":2868:2881   */\n      dup3\n        /* \"#utility.yul\":2824:2887   */\n      tag_63\n      jump\t// in\n    tag_100:\n        /* \"#utility.yul\":2817:2887   */\n      swap8\n      pop\n        /* \"#utility.yul\":2910:2970   */\n      tag_101\n        /* \"#utility.yul\":2963:2969   */\n      dup4\n        /* \"#utility.yul\":2910:2970   */\n      tag_64\n      jump\t// in\n    tag_101:\n        /* \"#utility.yul\":2900:2970   */\n      swap3\n      pop\n        /* \"#utility.yul\":2756:2980   */\n      pop\n        /* \"#utility.yul\":2743:2744   */\n      0x01\n        /* \"#utility.yul\":2740:2741   */\n      dup2\n        /* \"#utility.yul\":2736:2745   */\n      add\n        /* \"#utility.yul\":2731:2745   */\n      swap1\n      pop\n        /* \"#utility.yul\":2696:2980   */\n      jump(tag_97)\n    tag_99:\n        /* \"#utility.yul\":2700:2714   */\n      pop\n        /* \"#utility.yul\":2996:2999   */\n      dup6\n        /* \"#utility.yul\":2989:2999   */\n      swap4\n      pop\n        /* \"#utility.yul\":2397:3005   */\n      pop\n      pop\n      pop\n        /* \"#utility.yul\":2273:3005   */\n      swap3\n      swap2\n      pop\n      pop\n      jump\t// out\n        /* \"#utility.yul\":3011:3384   */\n    tag_21:\n        /* \"#utility.yul\":3154:3158   */\n      0x00\n        /* \"#utility.yul\":3192:3194   */\n      0x20\n        /* \"#utility.yul\":3181:3190   */\n      dup3\n        /* \"#utility.yul\":3177:3195   */\n      add\n        /* \"#utility.yul\":3169:3195   */\n      swap1\n      pop\n        /* \"#utility.yul\":3241:3250   */\n      dup2\n        /* \"#utility.yul\":3235:3239   */\n      dup2\n        /* \"#utility.yul\":3231:3251   */\n      sub\n        /* \"#utility.yul\":3227:3228   */\n      0x00\n        /* \"#utility.yul\":3216:3225   */\n      dup4\n        /* \"#utility.yul\":3212:3229   */\n      add\n        /* \"#utility.yul\":3205:3252   */\n      mstore\n        /* \"#utility.yul\":3269:3377   */\n      tag_103\n        /* \"#utility.yul\":3372:3376   */\n      dup2\n        /* \"#utility.yul\":3363:3369   */\n      dup5\n        /* \"#utility.yul\":3269:3377   */\n      tag_65\n      jump\t// in\n    tag_103:\n        /* \"#utility.yul\":3261:3377   */\n      swap1\n      pop\n        /* \"#utility.yul\":3011:3384   */\n      swap3\n      swap2\n      pop\n      pop\n      jump\t// out\n        /* \"#utility.yul\":3390:3570   */\n    tag_66:\n        /* \"#utility.yul\":3438:3515   */\n      0x4e487b7100000000000000000000000000000000000000000000000000000000\n        /* \"#utility.yul\":3435:3436   */\n      0x00\n        /* \"#utility.yul\":3428:3516   */\n      mstore\n        /* \"#utility.yul\":3535:3539   */\n      0x11\n        /* \"#utility.yul\":3532:3533   */\n      0x04\n        /* \"#utility.yul\":3525:3540   */\n      mstore\n        /* \"#utility.yul\":3559:3563   */\n      0x24\n        /* \"#utility.yul\":3556:3557   */\n      0x00\n        /* \"#utility.yul\":3549:3564   */\n      revert\n        /* \"#utility.yul\":3576:3770   */\n    tag_24:\n        /* \"#utility.yul\":3616:3620   */\n      0x00\n        /* \"#utility.yul\":3636:3656   */\n      tag_106\n        /* \"#utility.yul\":3654:3655   */\n      dup3\n        /* \"#utility.yul\":3636:3656   */\n      tag_55\n      jump\t// in\n    tag_106:\n        /* \"#utility.yul\":3631:3656   */\n      swap2\n      pop\n        /* \"#utility.yul\":3670:3690   */\n      tag_107\n        /* \"#utility.yul\":3688:3689   */\n      dup4\n        /* \"#utility.yul\":3670:3690   */\n      tag_55\n      jump\t// in\n    tag_107:\n        /* \"#utility.yul\":3665:3690   */\n      swap3\n      pop\n        /* \"#utility.yul\":3714:3715   */\n      dup3\n        /* \"#utility.yul\":3711:3712   */\n      dup3\n        /* \"#utility.yul\":3707:3716   */\n      sub\n        /* \"#utility.yul\":3699:3716   */\n      swap1\n      pop\n        /* \"#utility.yul\":3738:3739   */\n      dup2\n        /* \"#utility.yul\":3732:3736   */\n      dup2\n        /* \"#utility.yul\":3729:3740   */\n      gt\n        /* \"#utility.yul\":3726:3763   */\n      iszero\n      tag_108\n      jumpi\n        /* \"#utility.yul\":3743:3761   */\n      tag_109\n      tag_66\n      jump\t// in\n    tag_109:\n        /* \"#utility.yul\":3726:3763   */\n    tag_108:\n        /* \"#utility.yul\":3576:3770   */\n      swap3\n      swap2\n      pop\n      pop\n      jump\t// out\n        /* \"#utility.yul\":3776:3956   */\n    tag_27:\n        /* \"#utility.yul\":3824:3901   */\n      0x4e487b7100000000000000000000000000000000000000000000000000000000\n        /* \"#utility.yul\":3821:3822   */\n      0x00\n        /* \"#utility.yul\":3814:3902   */\n      mstore\n        /* \"#utility.yul\":3921:3925   */\n      0x32\n        /* \"#utility.yul\":3918:3919   */\n      0x04\n        /* \"#utility.yul\":3911:3926   */\n      mstore\n        /* \"#utility.yul\":3945:3949   */\n      0x24\n        /* \"#utility.yul\":3942:3943   */\n      0x00\n        /* \"#utility.yul\":3935:3950   */\n      revert\n        /* \"#utility.yul\":3962:4142   */\n    tag_34:\n        /* \"#utility.yul\":4010:4087   */\n      0x4e487b7100000000000000000000000000000000000000000000000000000000\n        /* \"#utility.yul\":4007:4008   */\n      0x00\n        /* \"#utility.yul\":4000:4088   */\n      mstore\n        /* \"#utility.yul\":4107:4111   */\n      0x31\n        /* \"#utility.yul\":4104:4105   */\n      0x04\n        /* \"#utility.yul\":4097:4112   */\n      mstore\n        /* \"#utility.yul\":4131:4135   */\n      0x24\n        /* \"#utility.yul\":4128:4129   */\n      0x00\n        /* \"#utility.yul\":4121:4136   */\n      revert\n\n    auxdata: 0xa2646970667358221220d9093853f33d9967d17b2423cf71e181cc18aa2b0a2221b4f256b1562fed9d9c64736f6c634300081a0033\n}\n",
				"bytecode": {
					"linkReferences": {},
					"object": "6080604052348015600e575f80fd5b506104b18061001c5f395ff3fe608060405234801561000f575f80fd5b506004361061004a575f3560e01c80634cc822151461004e57806371e5ee5f1461006a578063f8a8fd6d1461009a578063fb8cbced146100a4575b5f80fd5b61006860048036038101906100639190610297565b6100c2565b005b610084600480360381019061007f9190610297565b610134565b60405161009191906102d1565b60405180910390f35b6100a2610153565b005b6100ac6101a0565b6040516100b991906103a1565b60405180910390f35b5f60015f805490506100d491906103ee565b815481106100e5576100e4610421565b5b905f5260205f2001545f828154811061010157610100610421565b5b905f5260205f2001819055505f80548061011e5761011d61044e565b5b600190038181905f5260205f20015f9055905550565b5f8181548110610142575f80fd5b905f5260205f20015f915090505481565b6040518060800160405280600160ff168152602001600260ff168152602001600360ff168152602001600460ff168152505f9060046101939291906101f5565b5061019e60016100c2565b565b60605f8054806020026020016040519081016040528092919081815260200182805480156101eb57602002820191905f5260205f20905b8154815260200190600101908083116101d7575b5050505050905090565b828054828255905f5260205f20908101928215610234579160200282015b82811115610233578251829060ff16905591602001919060010190610213565b5b5090506102419190610245565b5090565b5b8082111561025c575f815f905550600101610246565b5090565b5f80fd5b5f819050919050565b61027681610264565b8114610280575f80fd5b50565b5f813590506102918161026d565b92915050565b5f602082840312156102ac576102ab610260565b5b5f6102b984828501610283565b91505092915050565b6102cb81610264565b82525050565b5f6020820190506102e45f8301846102c2565b92915050565b5f81519050919050565b5f82825260208201905092915050565b5f819050602082019050919050565b61031c81610264565b82525050565b5f61032d8383610313565b60208301905092915050565b5f602082019050919050565b5f61034f826102ea565b61035981856102f4565b935061036483610304565b805f5b8381101561039457815161037b8882610322565b975061038683610339565b925050600181019050610367565b5085935050505092915050565b5f6020820190508181035f8301526103b98184610345565b905092915050565b7f4e487b71000000000000000000000000000000000000000000000000000000005f52601160045260245ffd5b5f6103f882610264565b915061040383610264565b925082820390508181111561041b5761041a6103c1565b5b92915050565b7f4e487b71000000000000000000000000000000000000000000000000000000005f52603260045260245ffd5b7f4e487b71000000000000000000000000000000000000000000000000000000005f52603160045260245ffdfea2646970667358221220d9093853f33d9967d17b2423cf71e181cc18aa2b0a2221b4f256b1562fed9d9c64736f6c634300081a0033",
					"opcodes": "PUSH1 0x80 PUSH1 0x40 MSTORE CALLVALUE DUP1 ISZERO PUSH1 0xE JUMPI PUSH0 DUP1 REVERT JUMPDEST POP PUSH2 0x4B1 DUP1 PUSH2 0x1C PUSH0 CODECOPY PUSH0 RETURN INVALID PUSH1 0x80 PUSH1 0x40 MSTORE CALLVALUE DUP1 ISZERO PUSH2 0xF JUMPI PUSH0 DUP1 REVERT JUMPDEST POP PUSH1 0x4 CALLDATASIZE LT PUSH2 0x4A JUMPI PUSH0 CALLDATALOAD PUSH1 0xE0 SHR DUP1 PUSH4 0x4CC82215 EQ PUSH2 0x4E JUMPI DUP1 PUSH4 0x71E5EE5F EQ PUSH2 0x6A JUMPI DUP1 PUSH4 0xF8A8FD6D EQ PUSH2 0x9A JUMPI DUP1 PUSH4 0xFB8CBCED EQ PUSH2 0xA4 JUMPI JUMPDEST PUSH0 DUP1 REVERT JUMPDEST PUSH2 0x68 PUSH1 0x4 DUP1 CALLDATASIZE SUB DUP2 ADD SWAP1 PUSH2 0x63 SWAP2 SWAP1 PUSH2 0x297 JUMP JUMPDEST PUSH2 0xC2 JUMP JUMPDEST STOP JUMPDEST PUSH2 0x84 PUSH1 0x4 DUP1 CALLDATASIZE SUB DUP2 ADD SWAP1 PUSH2 0x7F SWAP2 SWAP1 PUSH2 0x297 JUMP JUMPDEST PUSH2 0x134 JUMP JUMPDEST PUSH1 0x40 MLOAD PUSH2 0x91 SWAP2 SWAP1 PUSH2 0x2D1 JUMP JUMPDEST PUSH1 0x40 MLOAD DUP1 SWAP2 SUB SWAP1 RETURN JUMPDEST PUSH2 0xA2 PUSH2 0x153 JUMP JUMPDEST STOP JUMPDEST PUSH2 0xAC PUSH2 0x1A0 JUMP JUMPDEST PUSH1 0x40 MLOAD PUSH2 0xB9 SWAP2 SWAP1 PUSH2 0x3A1 JUMP JUMPDEST PUSH1 0x40 MLOAD DUP1 SWAP2 SUB SWAP1 RETURN JUMPDEST PUSH0 PUSH1 0x1 PUSH0 DUP1 SLOAD SWAP1 POP PUSH2 0xD4 SWAP2 SWAP1 PUSH2 0x3EE JUMP JUMPDEST DUP2 SLOAD DUP2 LT PUSH2 0xE5 JUMPI PUSH2 0xE4 PUSH2 0x421 JUMP JUMPDEST JUMPDEST SWAP1 PUSH0 MSTORE PUSH1 0x20 PUSH0 KECCAK256 ADD SLOAD PUSH0 DUP3 DUP2 SLOAD DUP2 LT PUSH2 0x101 JUMPI PUSH2 0x100 PUSH2 0x421 JUMP JUMPDEST JUMPDEST SWAP1 PUSH0 MSTORE PUSH1 0x20 PUSH0 KECCAK256 ADD DUP2 SWAP1 SSTORE POP PUSH0 DUP1 SLOAD DUP1 PUSH2 0x11E JUMPI PUSH2 0x11D PUSH2 0x44E JUMP JUMPDEST JUMPDEST PUSH1 0x1 SWAP1 SUB DUP2 DUP2 SWAP1 PUSH0 MSTORE PUSH1 0x20 PUSH0 KECCAK256 ADD PUSH0 SWAP1 SSTORE SWAP1 SSTORE POP JUMP JUMPDEST PUSH0 DUP2 DUP2 SLOAD DUP2 LT PUSH2 0x142 JUMPI PUSH0 DUP1 REVERT JUMPDEST SWAP1 PUSH0 MSTORE PUSH1 0x20 PUSH0 KECCAK256 ADD PUSH0 SWAP2 POP SWAP1 POP SLOAD DUP2 JUMP JUMPDEST PUSH1 0x40 MLOAD DUP1 PUSH1 0x80 ADD PUSH1 0x40 MSTORE DUP1 PUSH1 0x1 PUSH1 0xFF AND DUP2 MSTORE PUSH1 0x20 ADD PUSH1 0x2 PUSH1 0xFF AND DUP2 MSTORE PUSH1 0x20 ADD PUSH1 0x3 PUSH1 0xFF AND DUP2 MSTORE PUSH1 0x20 ADD PUSH1 0x4 PUSH1 0xFF AND DUP2 MSTORE POP PUSH0 SWAP1 PUSH1 0x4 PUSH2 0x193 SWAP3 SWAP2 SWAP1 PUSH2 0x1F5 JUMP JUMPDEST POP PUSH2 0x19E PUSH1 0x1 PUSH2 0xC2 JUMP JUMPDEST JUMP JUMPDEST PUSH1 0x60 PUSH0 DUP1 SLOAD DUP1 PUSH1 0x20 MUL PUSH1 0x20 ADD PUSH1 0x40 MLOAD SWAP1 DUP2 ADD PUSH1 0x40 MSTORE DUP1 SWAP3 SWAP2 SWAP1 DUP2 DUP2 MSTORE PUSH1 0x20 ADD DUP3 DUP1 SLOAD DUP1 ISZERO PUSH2 0x1EB JUMPI PUSH1 0x20 MUL DUP3 ADD SWAP2 SWAP1 PUSH0 MSTORE PUSH1 0x20 PUSH0 KECCAK256 SWAP1 JUMPDEST DUP2 SLOAD DUP2 MSTORE PUSH1 0x20 ADD SWAP1 PUSH1 0x1 ADD SWAP1 DUP1 DUP4 GT PUSH2 0x1D7 JUMPI JUMPDEST POP POP POP POP POP SWAP1 POP SWAP1 JUMP JUMPDEST DUP3 DUP1 SLOAD DUP3 DUP3 SSTORE SWAP1 PUSH0 MSTORE PUSH1 0x20 PUSH0 KECCAK256 SWAP1 DUP2 ADD SWAP3 DUP3 ISZERO PUSH2 0x234 JUMPI SWAP2 PUSH1 0x20 MUL DUP3 ADD JUMPDEST DUP3 DUP2 GT ISZERO PUSH2 0x233 JUMPI DUP3 MLOAD DUP3 SWAP1 PUSH1 0xFF AND SWAP1 SSTORE SWAP2 PUSH1 0x20 ADD SWAP2 SWAP1 PUSH1 0x1 ADD SWAP1 PUSH2 0x213 JUMP JUMPDEST JUMPDEST POP SWAP1 POP PUSH2 0x241 SWAP2 SWAP1 PUSH2 0x245 JUMP JUMPDEST POP SWAP1 JUMP JUMPDEST JUMPDEST DUP1 DUP3 GT ISZERO PUSH2 0x25C JUMPI PUSH0 DUP2 PUSH0 SWAP1 SSTORE POP PUSH1 0x1 ADD PUSH2 0x246 JUMP JUMPDEST POP SWAP1 JUMP JUMPDEST PUSH0 DUP1 REVERT JUMPDEST PUSH0 DUP2 SWAP1 POP SWAP2 SWAP1 POP JUMP JUMPDEST PUSH2 0x276 DUP2 PUSH2 0x264 JUMP JUMPDEST DUP2 EQ PUSH2 0x280 JUMPI PUSH0 DUP1 REVERT JUMPDEST POP JUMP JUMPDEST PUSH0 DUP2 CALLDATALOAD SWAP1 POP PUSH2 0x291 DUP2 PUSH2 0x26D JUMP JUMPDEST SWAP3 SWAP2 POP POP JUMP JUMPDEST PUSH0 PUSH1 0x20 DUP3 DUP5 SUB SLT ISZERO PUSH2 0x2AC JUMPI PUSH2 0x2AB PUSH2 0x260 JUMP JUMPDEST JUMPDEST PUSH0 PUSH2 0x2B9 DUP5 DUP3 DUP6 ADD PUSH2 0x283 JUMP JUMPDEST SWAP2 POP POP SWAP3 SWAP2 POP POP JUMP JUMPDEST PUSH2 0x2CB DUP2 PUSH2 0x264 JUMP JUMPDEST DUP3 MSTORE POP POP JUMP JUMPDEST PUSH0 PUSH1 0x20 DUP3 ADD SWAP1 POP PUSH2 0x2E4 PUSH0 DUP4 ADD DUP5 PUSH2 0x2C2 JUMP JUMPDEST SWAP3 SWAP2 POP POP JUMP JUMPDEST PUSH0 DUP2 MLOAD SWAP1 POP SWAP2 SWAP1 POP JUMP JUMPDEST PUSH0 DUP3 DUP3 MSTORE PUSH1 0x20 DUP3 ADD SWAP1 POP SWAP3 SWAP2 POP POP JUMP JUMPDEST PUSH0 DUP2 SWAP1 POP PUSH1 0x20 DUP3 ADD SWAP1 POP SWAP2 SWAP1 POP JUMP JUMPDEST PUSH2 0x31C DUP2 PUSH2 0x264 JUMP JUMPDEST DUP3 MSTORE POP POP JUMP JUMPDEST PUSH0 PUSH2 0x32D DUP4 DUP4 PUSH2 0x313 JUMP JUMPDEST PUSH1 0x20 DUP4 ADD SWAP1 POP SWAP3 SWAP2 POP POP JUMP JUMPDEST PUSH0 PUSH1 0x20 DUP3 ADD SWAP1 POP SWAP2 SWAP1 POP JUMP JUMPDEST PUSH0 PUSH2 0x34F DUP3 PUSH2 0x2EA JUMP JUMPDEST PUSH2 0x359 DUP2 DUP6 PUSH2 0x2F4 JUMP JUMPDEST SWAP4 POP PUSH2 0x364 DUP4 PUSH2 0x304 JUMP JUMPDEST DUP1 PUSH0 JUMPDEST DUP4 DUP2 LT ISZERO PUSH2 0x394 JUMPI DUP2 MLOAD PUSH2 0x37B DUP9 DUP3 PUSH2 0x322 JUMP JUMPDEST SWAP8 POP PUSH2 0x386 DUP4 PUSH2 0x339 JUMP JUMPDEST SWAP3 POP POP PUSH1 0x1 DUP2 ADD SWAP1 POP PUSH2 0x367 JUMP JUMPDEST POP DUP6 SWAP4 POP POP POP POP SWAP3 SWAP2 POP POP JUMP JUMPDEST PUSH0 PUSH1 0x20 DUP3 ADD SWAP1 POP DUP2 DUP2 SUB PUSH0 DUP4 ADD MSTORE PUSH2 0x3B9 DUP2 DUP5 PUSH2 0x345 JUMP JUMPDEST SWAP1 POP SWAP3 SWAP2 POP POP JUMP JUMPDEST PUSH32 0x4E487B7100000000000000000000000000000000000000000000000000000000 PUSH0 MSTORE PUSH1 0x11 PUSH1 0x4 MSTORE PUSH1 0x24 PUSH0 REVERT JUMPDEST PUSH0 PUSH2 0x3F8 DUP3 PUSH2 0x264 JUMP JUMPDEST SWAP2 POP PUSH2 0x403 DUP4 PUSH2 0x264 JUMP JUMPDEST SWAP3 POP DUP3 DUP3 SUB SWAP1 POP DUP2 DUP2 GT ISZERO PUSH2 0x41B JUMPI PUSH2 0x41A PUSH2 0x3C1 JUMP JUMPDEST JUMPDEST SWAP3 SWAP2 POP POP JUMP JUMPDEST PUSH32 0x4E487B7100000000000000000000000000000000000000000000000000000000 PUSH0 MSTORE PUSH1 0x32 PUSH1 0x4 MSTORE PUSH1 0x24 PUSH0 REVERT JUMPDEST PUSH32 0x4E487B7100000000000000000000000000000000000000000000000000000000 PUSH0 MSTORE PUSH1 0x31 PUSH1 0x4 MSTORE PUSH1 0x24 PUSH0 REVERT INVALID LOG2 PUSH5 0x6970667358 0x22 SLT KECCAK256 0xD9 MULMOD CODESIZE MSTORE8 RETURN RETURNDATASIZE SWAP10 PUSH8 0xD17B2423CF71E181 0xCC XOR 0xAA 0x2B EXP 0x22 0x21 0xB4 CALLCODE JUMP 0xB1 JUMP 0x2F 0xED SWAP14 SWAP13 PUSH5 0x736F6C6343 STOP ADDMOD BYTE STOP CALLER "
				},
				"gasEstimates": {
					"creation": {
						"codeDepositCost": "240200",
						"executionCost": "279",
						"totalCost": "240479"
					},
					"external": {
						"arr(uint256)": "infinite",
						"getArr()": "infinite",
						"remove(uint256)": "infinite",
						"test()": "infinite"
					}
				},
				"methodIdentifiers": {
					"arr(uint256)": "71e5ee5f",
					"getArr()": "fb8cbced",
					"remove(uint256)": "4cc82215",
					"test()": "f8a8fd6d"
				}
			},
			"storageLayout": {
				"storage": [
					{
						"astId": 4,
						"contract": "contracts/Array.sol:ArrayReplacefromEnd",
						"label": "arr",
						"offset": 0,
						"slot": "0",
						"type": "t_array(t_uint256)dyn_storage"
					}
				],
				"types": {
					"t_array(t_uint256)dyn_storage": {
						"base": "t_uint256",
						"encoding": "dynamic_array",
						"label": "uint256[]",
						"numberOfBytes": "32"
					},
					"t_uint256": {
						"encoding": "inplace",
						"label": "uint256",
						"numberOfBytes": "32"
					}
				}
			},
			"userdoc": {
				"kind": "user",
				"methods": {},
				"version": 1
			}
		}
	}
}