{
	"contracts/StateVariable.sol": {
		"GlobalVariables": {
			"abi": [
				{
					"inputs": [],
					"stateMutability": "nonpayable",
					"type": "constructor"
				},
				{
					"inputs": [],
					"name": "Firstfour",
					"outputs": [
						{
							"internalType": "bytes",
							"name": "",
							"type": "bytes"
						}
					],
					"stateMutability": "view",
					"type": "function"
				},
				{
					"inputs": [],
					"name": "Myblockhash",
					"outputs": [
						{
							"internalType": "address",
							"name": "",
							"type": "address"
						}
					],
					"stateMutability": "view",
					"type": "function"
				},
				{
					"inputs": [],
					"name": "callData",
					"outputs": [
						{
							"internalType": "bytes",
							"name": "",
							"type": "bytes"
						}
					],
					"stateMutability": "view",
					"type": "function"
				},
				{
					"inputs": [],
					"name": "difficulty",
					"outputs": [
						{
							"internalType": "uint256",
							"name": "",
							"type": "uint256"
						}
					],
					"stateMutability": "view",
					"type": "function"
				},
				{
					"inputs": [],
					"name": "gasLimit",
					"outputs": [
						{
							"internalType": "uint256",
							"name": "",
							"type": "uint256"
						}
					],
					"stateMutability": "view",
					"type": "function"
				},
				{
					"inputs": [],
					"name": "gasprice",
					"outputs": [
						{
							"internalType": "uint256",
							"name": "",
							"type": "uint256"
						}
					],
					"stateMutability": "view",
					"type": "function"
				},
				{
					"inputs": [],
					"name": "nowOn",
					"outputs": [
						{
							"internalType": "uint256",
							"name": "",
							"type": "uint256"
						}
					],
					"stateMutability": "view",
					"type": "function"
				},
				{
					"inputs": [],
					"name": "number",
					"outputs": [
						{
							"internalType": "uint256",
							"name": "",
							"type": "uint256"
						}
					],
					"stateMutability": "view",
					"type": "function"
				},
				{
					"inputs": [],
					"name": "origin",
					"outputs": [
						{
							"internalType": "uint256",
							"name": "",
							"type": "uint256"
						}
					],
					"stateMutability": "view",
					"type": "function"
				},
				{
					"inputs": [],
					"name": "owner",
					"outputs": [
						{
							"internalType": "address",
							"name": "",
							"type": "address"
						}
					],
					"stateMutability": "view",
					"type": "function"
				},
				{
					"inputs": [],
					"name": "timestamp",
					"outputs": [
						{
							"internalType": "uint256",
							"name": "",
							"type": "uint256"
						}
					],
					"stateMutability": "view",
					"type": "function"
				},
				{
					"inputs": [],
					"name": "value",
					"outputs": [
						{
							"internalType": "uint256",
							"name": "",
							"type": "uint256"
						}
					],
					"stateMutability": "view",
					"type": "function"
				}
			],
			"devdoc": {
				"kind": "dev",
				"methods": {},
				"version": 1
			},
			"evm": {
				"assembly": "    /* \"contracts/StateVariable.sol\":1022:1720  contract GlobalVariables{... */\n  mstore(0x40, 0x80)\n    /* \"contracts/StateVariable.sol\":1409:1717  constructor(){... */\n  callvalue\n  dup1\n  iszero\n  tag_1\n  jumpi\n  0x00\n  dup1\n  revert\ntag_1:\n  pop\n    /* \"contracts/StateVariable.sol\":1441:1451  msg.sender */\n  caller\n    /* \"contracts/StateVariable.sol\":1433:1438  owner */\n  0x00\n  dup1\n    /* \"contracts/StateVariable.sol\":1433:1451  owner = msg.sender */\n  0x0100\n  exp\n  dup2\n  sload\n  dup2\n  0xffffffffffffffffffffffffffffffffffffffff\n  mul\n  not\n  and\n  swap1\n  dup4\n  0xffffffffffffffffffffffffffffffffffffffff\n  and\n  mul\n  or\n  swap1\n  sstore\n  pop\n    /* \"contracts/StateVariable.sol\":1476:1490  block.coinbase */\n  coinbase\n    /* \"contracts/StateVariable.sol\":1462:1473  Myblockhash */\n  0x01\n  0x00\n    /* \"contracts/StateVariable.sol\":1462:1490  Myblockhash = block.coinbase */\n  0x0100\n  exp\n  dup2\n  sload\n  dup2\n  0xffffffffffffffffffffffffffffffffffffffff\n  mul\n  not\n  and\n  swap1\n  dup4\n  0xffffffffffffffffffffffffffffffffffffffff\n  and\n  mul\n  or\n  swap1\n  sstore\n  pop\n    /* \"contracts/StateVariable.sol\":1514:1530  block.difficulty */\n  prevrandao\n    /* \"contracts/StateVariable.sol\":1501:1511  difficulty */\n  0x02\n    /* \"contracts/StateVariable.sol\":1501:1530  difficulty = block.difficulty */\n  dup2\n  swap1\n  sstore\n  pop\n    /* \"contracts/StateVariable.sol\":1552:1566  block.gaslimit */\n  gaslimit\n    /* \"contracts/StateVariable.sol\":1541:1549  gasLimit */\n  0x03\n    /* \"contracts/StateVariable.sol\":1541:1566  gasLimit = block.gaslimit */\n  dup2\n  swap1\n  sstore\n  pop\n    /* \"contracts/StateVariable.sol\":1586:1598  block.number */\n  number\n    /* \"contracts/StateVariable.sol\":1577:1583  number */\n  0x04\n    /* \"contracts/StateVariable.sol\":1577:1598  number = block.number */\n  dup2\n  swap1\n  sstore\n  pop\n    /* \"contracts/StateVariable.sol\":1621:1636  block.timestamp */\n  timestamp\n    /* \"contracts/StateVariable.sol\":1609:1618  timestamp */\n  0x05\n    /* \"contracts/StateVariable.sol\":1609:1636  timestamp = block.timestamp */\n  dup2\n  swap1\n  sstore\n  pop\n    /* \"contracts/StateVariable.sol\":1658:1669  tx.gasprice */\n  gasprice\n    /* \"contracts/StateVariable.sol\":1647:1655  gasprice */\n  0x09\n    /* \"contracts/StateVariable.sol\":1647:1669  gasprice = tx.gasprice */\n  dup2\n  swap1\n  sstore\n  pop\n    /* \"contracts/StateVariable.sol\":1691:1699  msg.data */\n  0x00\n  calldatasize\n    /* \"contracts/StateVariable.sol\":1680:1688  callData */\n  0x0a\n    /* \"contracts/StateVariable.sol\":1680:1699  callData = msg.data */\n  swap2\n  dup3\n  tag_4\n  swap3\n  swap2\n  swap1\n  tag_5\n  jump\t// in\ntag_4:\n  pop\n    /* \"contracts/StateVariable.sol\":1022:1720  contract GlobalVariables{... */\n  jump(tag_6)\n    /* \"#utility.yul\":7:103   */\ntag_7:\n    /* \"#utility.yul\":65:71   */\n  0x00\n    /* \"#utility.yul\":93:96   */\n  dup3\n    /* \"#utility.yul\":83:96   */\n  swap1\n  pop\n    /* \"#utility.yul\":7:103   */\n  swap3\n  swap2\n  pop\n  pop\n  jump\t// out\n    /* \"#utility.yul\":109:289   */\ntag_8:\n    /* \"#utility.yul\":157:234   */\n  0x4e487b7100000000000000000000000000000000000000000000000000000000\n    /* \"#utility.yul\":154:155   */\n  0x00\n    /* \"#utility.yul\":147:235   */\n  mstore\n    /* \"#utility.yul\":254:258   */\n  0x41\n    /* \"#utility.yul\":251:252   */\n  0x04\n    /* \"#utility.yul\":244:259   */\n  mstore\n    /* \"#utility.yul\":278:282   */\n  0x24\n    /* \"#utility.yul\":275:276   */\n  0x00\n    /* \"#utility.yul\":268:283   */\n  revert\n    /* \"#utility.yul\":295:475   */\ntag_9:\n    /* \"#utility.yul\":343:420   */\n  0x4e487b7100000000000000000000000000000000000000000000000000000000\n    /* \"#utility.yul\":340:341   */\n  0x00\n    /* \"#utility.yul\":333:421   */\n  mstore\n    /* \"#utility.yul\":440:444   */\n  0x22\n    /* \"#utility.yul\":437:438   */\n  0x04\n    /* \"#utility.yul\":430:445   */\n  mstore\n    /* \"#utility.yul\":464:468   */\n  0x24\n    /* \"#utility.yul\":461:462   */\n  0x00\n    /* \"#utility.yul\":454:469   */\n  revert\n    /* \"#utility.yul\":481:801   */\ntag_10:\n    /* \"#utility.yul\":525:531   */\n  0x00\n    /* \"#utility.yul\":562:563   */\n  0x02\n    /* \"#utility.yul\":556:560   */\n  dup3\n    /* \"#utility.yul\":552:564   */\n  div\n    /* \"#utility.yul\":542:564   */\n  swap1\n  pop\n    /* \"#utility.yul\":609:610   */\n  0x01\n    /* \"#utility.yul\":603:607   */\n  dup3\n    /* \"#utility.yul\":599:611   */\n  and\n    /* \"#utility.yul\":630:648   */\n  dup1\n    /* \"#utility.yul\":620:701   */\n  tag_32\n  jumpi\n    /* \"#utility.yul\":686:690   */\n  0x7f\n    /* \"#utility.yul\":678:684   */\n  dup3\n    /* \"#utility.yul\":674:691   */\n  and\n    /* \"#utility.yul\":664:691   */\n  swap2\n  pop\n    /* \"#utility.yul\":620:701   */\ntag_32:\n    /* \"#utility.yul\":748:750   */\n  0x20\n    /* \"#utility.yul\":740:746   */\n  dup3\n    /* \"#utility.yul\":737:751   */\n  lt\n    /* \"#utility.yul\":717:735   */\n  dup2\n    /* \"#utility.yul\":714:752   */\n  sub\n    /* \"#utility.yul\":711:795   */\n  tag_33\n  jumpi\n    /* \"#utility.yul\":767:785   */\n  tag_34\n  tag_9\n  jump\t// in\ntag_34:\n    /* \"#utility.yul\":711:795   */\ntag_33:\n    /* \"#utility.yul\":532:801   */\n  pop\n    /* \"#utility.yul\":481:801   */\n  swap2\n  swap1\n  pop\n  jump\t// out\n    /* \"#utility.yul\":807:947   */\ntag_11:\n    /* \"#utility.yul\":855:859   */\n  0x00\n    /* \"#utility.yul\":878:881   */\n  dup2\n    /* \"#utility.yul\":870:881   */\n  swap1\n  pop\n    /* \"#utility.yul\":901:904   */\n  dup2\n    /* \"#utility.yul\":898:899   */\n  0x00\n    /* \"#utility.yul\":891:905   */\n  mstore\n    /* \"#utility.yul\":935:939   */\n  0x20\n    /* \"#utility.yul\":932:933   */\n  0x00\n    /* \"#utility.yul\":922:940   */\n  keccak256\n    /* \"#utility.yul\":914:940   */\n  swap1\n  pop\n    /* \"#utility.yul\":807:947   */\n  swap2\n  swap1\n  pop\n  jump\t// out\n    /* \"#utility.yul\":953:1046   */\ntag_12:\n    /* \"#utility.yul\":990:996   */\n  0x00\n    /* \"#utility.yul\":1037:1039   */\n  0x20\n    /* \"#utility.yul\":1032:1034   */\n  0x1f\n    /* \"#utility.yul\":1025:1030   */\n  dup4\n    /* \"#utility.yul\":1021:1035   */\n  add\n    /* \"#utility.yul\":1017:1040   */\n  div\n    /* \"#utility.yul\":1007:1040   */\n  swap1\n  pop\n    /* \"#utility.yul\":953:1046   */\n  swap2\n  swap1\n  pop\n  jump\t// out\n    /* \"#utility.yul\":1052:1159   */\ntag_13:\n    /* \"#utility.yul\":1096:1104   */\n  0x00\n    /* \"#utility.yul\":1146:1151   */\n  dup3\n    /* \"#utility.yul\":1140:1144   */\n  dup3\n    /* \"#utility.yul\":1136:1152   */\n  shl\n    /* \"#utility.yul\":1115:1152   */\n  swap1\n  pop\n    /* \"#utility.yul\":1052:1159   */\n  swap3\n  swap2\n  pop\n  pop\n  jump\t// out\n    /* \"#utility.yul\":1165:1558   */\ntag_14:\n    /* \"#utility.yul\":1234:1240   */\n  0x00\n    /* \"#utility.yul\":1284:1285   */\n  0x08\n    /* \"#utility.yul\":1272:1282   */\n  dup4\n    /* \"#utility.yul\":1268:1286   */\n  mul\n    /* \"#utility.yul\":1307:1404   */\n  tag_39\n    /* \"#utility.yul\":1337:1403   */\n  0xffffffffffffffffffffffffffffffffffffffffffffffffffffffffffffffff\n    /* \"#utility.yul\":1326:1335   */\n  dup3\n    /* \"#utility.yul\":1307:1404   */\n  tag_13\n  jump\t// in\ntag_39:\n    /* \"#utility.yul\":1425:1464   */\n  tag_40\n    /* \"#utility.yul\":1455:1463   */\n  dup7\n    /* \"#utility.yul\":1444:1453   */\n  dup4\n    /* \"#utility.yul\":1425:1464   */\n  tag_13\n  jump\t// in\ntag_40:\n    /* \"#utility.yul\":1413:1464   */\n  swap6\n  pop\n    /* \"#utility.yul\":1497:1501   */\n  dup1\n    /* \"#utility.yul\":1493:1502   */\n  not\n    /* \"#utility.yul\":1486:1491   */\n  dup5\n    /* \"#utility.yul\":1482:1503   */\n  and\n    /* \"#utility.yul\":1473:1503   */\n  swap4\n  pop\n    /* \"#utility.yul\":1546:1550   */\n  dup1\n    /* \"#utility.yul\":1536:1544   */\n  dup7\n    /* \"#utility.yul\":1532:1551   */\n  and\n    /* \"#utility.yul\":1525:1530   */\n  dup5\n    /* \"#utility.yul\":1522:1552   */\n  or\n    /* \"#utility.yul\":1512:1552   */\n  swap3\n  pop\n    /* \"#utility.yul\":1241:1558   */\n  pop\n  pop\n    /* \"#utility.yul\":1165:1558   */\n  swap4\n  swap3\n  pop\n  pop\n  pop\n  jump\t// out\n    /* \"#utility.yul\":1564:1641   */\ntag_15:\n    /* \"#utility.yul\":1601:1608   */\n  0x00\n    /* \"#utility.yul\":1630:1635   */\n  dup2\n    /* \"#utility.yul\":1619:1635   */\n  swap1\n  pop\n    /* \"#utility.yul\":1564:1641   */\n  swap2\n  swap1\n  pop\n  jump\t// out\n    /* \"#utility.yul\":1647:1707   */\ntag_16:\n    /* \"#utility.yul\":1675:1678   */\n  0x00\n    /* \"#utility.yul\":1696:1701   */\n  dup2\n    /* \"#utility.yul\":1689:1701   */\n  swap1\n  pop\n    /* \"#utility.yul\":1647:1707   */\n  swap2\n  swap1\n  pop\n  jump\t// out\n    /* \"#utility.yul\":1713:1855   */\ntag_17:\n    /* \"#utility.yul\":1763:1772   */\n  0x00\n    /* \"#utility.yul\":1796:1849   */\n  tag_44\n    /* \"#utility.yul\":1814:1848   */\n  tag_45\n    /* \"#utility.yul\":1823:1847   */\n  tag_46\n    /* \"#utility.yul\":1841:1846   */\n  dup5\n    /* \"#utility.yul\":1823:1847   */\n  tag_15\n  jump\t// in\ntag_46:\n    /* \"#utility.yul\":1814:1848   */\n  tag_16\n  jump\t// in\ntag_45:\n    /* \"#utility.yul\":1796:1849   */\n  tag_15\n  jump\t// in\ntag_44:\n    /* \"#utility.yul\":1783:1849   */\n  swap1\n  pop\n    /* \"#utility.yul\":1713:1855   */\n  swap2\n  swap1\n  pop\n  jump\t// out\n    /* \"#utility.yul\":1861:1936   */\ntag_18:\n    /* \"#utility.yul\":1904:1907   */\n  0x00\n    /* \"#utility.yul\":1925:1930   */\n  dup2\n    /* \"#utility.yul\":1918:1930   */\n  swap1\n  pop\n    /* \"#utility.yul\":1861:1936   */\n  swap2\n  swap1\n  pop\n  jump\t// out\n    /* \"#utility.yul\":1942:2211   */\ntag_19:\n    /* \"#utility.yul\":2052:2091   */\n  tag_49\n    /* \"#utility.yul\":2083:2090   */\n  dup4\n    /* \"#utility.yul\":2052:2091   */\n  tag_17\n  jump\t// in\ntag_49:\n    /* \"#utility.yul\":2113:2204   */\n  tag_50\n    /* \"#utility.yul\":2162:2203   */\n  tag_51\n    /* \"#utility.yul\":2186:2202   */\n  dup3\n    /* \"#utility.yul\":2162:2203   */\n  tag_18\n  jump\t// in\ntag_51:\n    /* \"#utility.yul\":2154:2160   */\n  dup5\n    /* \"#utility.yul\":2147:2151   */\n  dup5\n    /* \"#utility.yul\":2141:2152   */\n  sload\n    /* \"#utility.yul\":2113:2204   */\n  tag_14\n  jump\t// in\ntag_50:\n    /* \"#utility.yul\":2107:2111   */\n  dup3\n    /* \"#utility.yul\":2100:2205   */\n  sstore\n    /* \"#utility.yul\":2018:2211   */\n  pop\n    /* \"#utility.yul\":1942:2211   */\n  pop\n  pop\n  pop\n  jump\t// out\n    /* \"#utility.yul\":2217:2290   */\ntag_20:\n    /* \"#utility.yul\":2262:2265   */\n  0x00\n    /* \"#utility.yul\":2217:2290   */\n  swap1\n  jump\t// out\n    /* \"#utility.yul\":2296:2485   */\ntag_21:\n    /* \"#utility.yul\":2373:2405   */\n  tag_54\n  tag_20\n  jump\t// in\ntag_54:\n    /* \"#utility.yul\":2414:2479   */\n  tag_55\n    /* \"#utility.yul\":2472:2478   */\n  dup2\n    /* \"#utility.yul\":2464:2470   */\n  dup5\n    /* \"#utility.yul\":2458:2462   */\n  dup5\n    /* \"#utility.yul\":2414:2479   */\n  tag_19\n  jump\t// in\ntag_55:\n    /* \"#utility.yul\":2349:2485   */\n  pop\n    /* \"#utility.yul\":2296:2485   */\n  pop\n  pop\n  jump\t// out\n    /* \"#utility.yul\":2491:2677   */\ntag_22:\n    /* \"#utility.yul\":2551:2671   */\ntag_57:\n    /* \"#utility.yul\":2568:2571   */\n  dup2\n    /* \"#utility.yul\":2561:2566   */\n  dup2\n    /* \"#utility.yul\":2558:2572   */\n  lt\n    /* \"#utility.yul\":2551:2671   */\n  iszero\n  tag_59\n  jumpi\n    /* \"#utility.yul\":2622:2661   */\n  tag_60\n    /* \"#utility.yul\":2659:2660   */\n  0x00\n    /* \"#utility.yul\":2652:2657   */\n  dup3\n    /* \"#utility.yul\":2622:2661   */\n  tag_21\n  jump\t// in\ntag_60:\n    /* \"#utility.yul\":2595:2596   */\n  0x01\n    /* \"#utility.yul\":2588:2593   */\n  dup2\n    /* \"#utility.yul\":2584:2597   */\n  add\n    /* \"#utility.yul\":2575:2597   */\n  swap1\n  pop\n    /* \"#utility.yul\":2551:2671   */\n  jump(tag_57)\ntag_59:\n    /* \"#utility.yul\":2491:2677   */\n  pop\n  pop\n  jump\t// out\n    /* \"#utility.yul\":2683:3224   */\ntag_23:\n    /* \"#utility.yul\":2783:2785   */\n  0x1f\n    /* \"#utility.yul\":2778:2781   */\n  dup3\n    /* \"#utility.yul\":2775:2786   */\n  gt\n    /* \"#utility.yul\":2772:3217   */\n  iszero\n  tag_62\n  jumpi\n    /* \"#utility.yul\":2817:2854   */\n  tag_63\n    /* \"#utility.yul\":2848:2853   */\n  dup2\n    /* \"#utility.yul\":2817:2854   */\n  tag_11\n  jump\t// in\ntag_63:\n    /* \"#utility.yul\":2900:2929   */\n  tag_64\n    /* \"#utility.yul\":2918:2928   */\n  dup5\n    /* \"#utility.yul\":2900:2929   */\n  tag_12\n  jump\t// in\ntag_64:\n    /* \"#utility.yul\":2890:2898   */\n  dup2\n    /* \"#utility.yul\":2886:2930   */\n  add\n    /* \"#utility.yul\":3083:3085   */\n  0x20\n    /* \"#utility.yul\":3071:3081   */\n  dup6\n    /* \"#utility.yul\":3068:3086   */\n  lt\n    /* \"#utility.yul\":3065:3114   */\n  iszero\n  tag_65\n  jumpi\n    /* \"#utility.yul\":3104:3112   */\n  dup2\n    /* \"#utility.yul\":3089:3112   */\n  swap1\n  pop\n    /* \"#utility.yul\":3065:3114   */\ntag_65:\n    /* \"#utility.yul\":3127:3207   */\n  tag_66\n    /* \"#utility.yul\":3183:3205   */\n  tag_67\n    /* \"#utility.yul\":3201:3204   */\n  dup6\n    /* \"#utility.yul\":3183:3205   */\n  tag_12\n  jump\t// in\ntag_67:\n    /* \"#utility.yul\":3173:3181   */\n  dup4\n    /* \"#utility.yul\":3169:3206   */\n  add\n    /* \"#utility.yul\":3156:3167   */\n  dup3\n    /* \"#utility.yul\":3127:3207   */\n  tag_22\n  jump\t// in\ntag_66:\n    /* \"#utility.yul\":2787:3217   */\n  pop\n  pop\n    /* \"#utility.yul\":2772:3217   */\ntag_62:\n    /* \"#utility.yul\":2683:3224   */\n  pop\n  pop\n  pop\n  jump\t// out\n    /* \"#utility.yul\":3230:3347   */\ntag_24:\n    /* \"#utility.yul\":3284:3292   */\n  0x00\n    /* \"#utility.yul\":3334:3339   */\n  dup3\n    /* \"#utility.yul\":3328:3332   */\n  dup3\n    /* \"#utility.yul\":3324:3340   */\n  shr\n    /* \"#utility.yul\":3303:3340   */\n  swap1\n  pop\n    /* \"#utility.yul\":3230:3347   */\n  swap3\n  swap2\n  pop\n  pop\n  jump\t// out\n    /* \"#utility.yul\":3353:3522   */\ntag_25:\n    /* \"#utility.yul\":3397:3403   */\n  0x00\n    /* \"#utility.yul\":3430:3481   */\n  tag_70\n    /* \"#utility.yul\":3478:3479   */\n  0x00\n    /* \"#utility.yul\":3474:3480   */\n  not\n    /* \"#utility.yul\":3466:3471   */\n  dup5\n    /* \"#utility.yul\":3463:3464   */\n  0x08\n    /* \"#utility.yul\":3459:3472   */\n  mul\n    /* \"#utility.yul\":3430:3481   */\n  tag_24\n  jump\t// in\ntag_70:\n    /* \"#utility.yul\":3426:3482   */\n  not\n    /* \"#utility.yul\":3511:3515   */\n  dup1\n    /* \"#utility.yul\":3505:3509   */\n  dup4\n    /* \"#utility.yul\":3501:3516   */\n  and\n    /* \"#utility.yul\":3491:3516   */\n  swap2\n  pop\n    /* \"#utility.yul\":3404:3522   */\n  pop\n    /* \"#utility.yul\":3353:3522   */\n  swap3\n  swap2\n  pop\n  pop\n  jump\t// out\n    /* \"#utility.yul\":3527:3822   */\ntag_26:\n    /* \"#utility.yul\":3603:3607   */\n  0x00\n    /* \"#utility.yul\":3749:3778   */\n  tag_72\n    /* \"#utility.yul\":3774:3777   */\n  dup4\n    /* \"#utility.yul\":3768:3772   */\n  dup4\n    /* \"#utility.yul\":3749:3778   */\n  tag_25\n  jump\t// in\ntag_72:\n    /* \"#utility.yul\":3741:3778   */\n  swap2\n  pop\n    /* \"#utility.yul\":3811:3814   */\n  dup3\n    /* \"#utility.yul\":3808:3809   */\n  0x02\n    /* \"#utility.yul\":3804:3815   */\n  mul\n    /* \"#utility.yul\":3798:3802   */\n  dup3\n    /* \"#utility.yul\":3795:3816   */\n  or\n    /* \"#utility.yul\":3787:3816   */\n  swap1\n  pop\n    /* \"#utility.yul\":3527:3822   */\n  swap3\n  swap2\n  pop\n  pop\n  jump\t// out\n    /* \"#utility.yul\":3827:5225   */\ntag_5:\n    /* \"#utility.yul\":3949:3992   */\n  tag_74\n    /* \"#utility.yul\":3988:3991   */\n  dup4\n    /* \"#utility.yul\":3983:3986   */\n  dup4\n    /* \"#utility.yul\":3949:3992   */\n  tag_7\n  jump\t// in\ntag_74:\n    /* \"#utility.yul\":4057:4075   */\n  0xffffffffffffffff\n    /* \"#utility.yul\":4049:4055   */\n  dup2\n    /* \"#utility.yul\":4046:4076   */\n  gt\n    /* \"#utility.yul\":4043:4099   */\n  iszero\n  tag_75\n  jumpi\n    /* \"#utility.yul\":4079:4097   */\n  tag_76\n  tag_8\n  jump\t// in\ntag_76:\n    /* \"#utility.yul\":4043:4099   */\ntag_75:\n    /* \"#utility.yul\":4123:4161   */\n  tag_77\n    /* \"#utility.yul\":4155:4159   */\n  dup3\n    /* \"#utility.yul\":4149:4160   */\n  sload\n    /* \"#utility.yul\":4123:4161   */\n  tag_10\n  jump\t// in\ntag_77:\n    /* \"#utility.yul\":4208:4274   */\n  tag_78\n    /* \"#utility.yul\":4267:4273   */\n  dup3\n    /* \"#utility.yul\":4259:4265   */\n  dup3\n    /* \"#utility.yul\":4253:4257   */\n  dup6\n    /* \"#utility.yul\":4208:4274   */\n  tag_23\n  jump\t// in\ntag_78:\n    /* \"#utility.yul\":4301:4302   */\n  0x00\n    /* \"#utility.yul\":4330:4332   */\n  0x1f\n    /* \"#utility.yul\":4322:4328   */\n  dup4\n    /* \"#utility.yul\":4319:4333   */\n  gt\n    /* \"#utility.yul\":4347:4348   */\n  0x01\n    /* \"#utility.yul\":4342:4973   */\n  dup2\n  eq\n  tag_80\n  jumpi\n    /* \"#utility.yul\":5017:5018   */\n  0x00\n    /* \"#utility.yul\":5034:5040   */\n  dup5\n    /* \"#utility.yul\":5031:5115   */\n  iszero\n  tag_81\n  jumpi\n    /* \"#utility.yul\":5090:5099   */\n  dup3\n    /* \"#utility.yul\":5085:5088   */\n  dup8\n    /* \"#utility.yul\":5081:5100   */\n  add\n    /* \"#utility.yul\":5068:5101   */\n  calldataload\n    /* \"#utility.yul\":5059:5101   */\n  swap1\n  pop\n    /* \"#utility.yul\":5031:5115   */\ntag_81:\n    /* \"#utility.yul\":5141:5208   */\n  tag_82\n    /* \"#utility.yul\":5201:5207   */\n  dup6\n    /* \"#utility.yul\":5194:5199   */\n  dup3\n    /* \"#utility.yul\":5141:5208   */\n  tag_26\n  jump\t// in\ntag_82:\n    /* \"#utility.yul\":5135:5139   */\n  dup7\n    /* \"#utility.yul\":5128:5209   */\n  sstore\n    /* \"#utility.yul\":4990:5219   */\n  pop\n    /* \"#utility.yul\":4312:5219   */\n  jump(tag_79)\n    /* \"#utility.yul\":4342:4973   */\ntag_80:\n    /* \"#utility.yul\":4394:4398   */\n  0x1f\n    /* \"#utility.yul\":4390:4399   */\n  not\n    /* \"#utility.yul\":4382:4388   */\n  dup5\n    /* \"#utility.yul\":4378:4400   */\n  and\n    /* \"#utility.yul\":4428:4464   */\n  tag_83\n    /* \"#utility.yul\":4459:4463   */\n  dup7\n    /* \"#utility.yul\":4428:4464   */\n  tag_11\n  jump\t// in\ntag_83:\n    /* \"#utility.yul\":4486:4487   */\n  0x00\n    /* \"#utility.yul\":4500:4715   */\ntag_84:\n    /* \"#utility.yul\":4514:4521   */\n  dup3\n    /* \"#utility.yul\":4511:4512   */\n  dup2\n    /* \"#utility.yul\":4508:4522   */\n  lt\n    /* \"#utility.yul\":4500:4715   */\n  iszero\n  tag_86\n  jumpi\n    /* \"#utility.yul\":4600:4609   */\n  dup5\n    /* \"#utility.yul\":4595:4598   */\n  dup10\n    /* \"#utility.yul\":4591:4610   */\n  add\n    /* \"#utility.yul\":4578:4611   */\n  calldataload\n    /* \"#utility.yul\":4570:4576   */\n  dup3\n    /* \"#utility.yul\":4563:4612   */\n  sstore\n    /* \"#utility.yul\":4651:4652   */\n  0x01\n    /* \"#utility.yul\":4643:4649   */\n  dup3\n    /* \"#utility.yul\":4639:4653   */\n  add\n    /* \"#utility.yul\":4629:4653   */\n  swap2\n  pop\n    /* \"#utility.yul\":4698:4700   */\n  0x20\n    /* \"#utility.yul\":4687:4696   */\n  dup6\n    /* \"#utility.yul\":4683:4701   */\n  add\n    /* \"#utility.yul\":4670:4701   */\n  swap5\n  pop\n    /* \"#utility.yul\":4537:4541   */\n  0x20\n    /* \"#utility.yul\":4534:4535   */\n  dup2\n    /* \"#utility.yul\":4530:4542   */\n  add\n    /* \"#utility.yul\":4525:4542   */\n  swap1\n  pop\n    /* \"#utility.yul\":4500:4715   */\n  jump(tag_84)\ntag_86:\n    /* \"#utility.yul\":4743:4749   */\n  dup7\n    /* \"#utility.yul\":4734:4741   */\n  dup4\n    /* \"#utility.yul\":4731:4750   */\n  lt\n    /* \"#utility.yul\":4728:4914   */\n  iszero\n  tag_87\n  jumpi\n    /* \"#utility.yul\":4808:4817   */\n  dup5\n    /* \"#utility.yul\":4803:4806   */\n  dup10\n    /* \"#utility.yul\":4799:4818   */\n  add\n    /* \"#utility.yul\":4786:4819   */\n  calldataload\n    /* \"#utility.yul\":4851:4899   */\n  tag_88\n    /* \"#utility.yul\":4893:4897   */\n  0x1f\n    /* \"#utility.yul\":4885:4891   */\n  dup10\n    /* \"#utility.yul\":4881:4898   */\n  and\n    /* \"#utility.yul\":4870:4879   */\n  dup3\n    /* \"#utility.yul\":4851:4899   */\n  tag_25\n  jump\t// in\ntag_88:\n    /* \"#utility.yul\":4843:4849   */\n  dup4\n    /* \"#utility.yul\":4836:4900   */\n  sstore\n    /* \"#utility.yul\":4751:4914   */\n  pop\n    /* \"#utility.yul\":4728:4914   */\ntag_87:\n    /* \"#utility.yul\":4960:4961   */\n  0x01\n    /* \"#utility.yul\":4956:4957   */\n  0x02\n    /* \"#utility.yul\":4948:4954   */\n  dup9\n    /* \"#utility.yul\":4944:4958   */\n  mul\n    /* \"#utility.yul\":4940:4962   */\n  add\n    /* \"#utility.yul\":4934:4938   */\n  dup9\n    /* \"#utility.yul\":4927:4963   */\n  sstore\n    /* \"#utility.yul\":4349:4973   */\n  pop\n  pop\n  pop\n    /* \"#utility.yul\":4312:5219   */\ntag_79:\n  pop\n    /* \"#utility.yul\":3924:5225   */\n  pop\n  pop\n  pop\n    /* \"#utility.yul\":3827:5225   */\n  pop\n  pop\n  pop\n  jump\t// out\n    /* \"contracts/StateVariable.sol\":1022:1720  contract GlobalVariables{... */\ntag_6:\n  dataSize(sub_0)\n  dup1\n  dataOffset(sub_0)\n  0x00\n  codecopy\n  0x00\n  return\nstop\n\nsub_0: assembly {\n        /* \"contracts/StateVariable.sol\":1022:1720  contract GlobalVariables{... */\n      mstore(0x40, 0x80)\n      callvalue\n      dup1\n      iszero\n      tag_1\n      jumpi\n      0x00\n      dup1\n      revert\n    tag_1:\n      pop\n      jumpi(tag_2, lt(calldatasize, 0x04))\n      shr(0xe0, calldataload(0x00))\n      dup1\n      0x8381f58a\n      gt\n      tag_15\n      jumpi\n      dup1\n      0x8381f58a\n      eq\n      tag_9\n      jumpi\n      dup1\n      0x8da5cb5b\n      eq\n      tag_10\n      jumpi\n      dup1\n      0x938b5f32\n      eq\n      tag_11\n      jumpi\n      dup1\n      0xb80777ea\n      eq\n      tag_12\n      jumpi\n      dup1\n      0xe976f0bc\n      eq\n      tag_13\n      jumpi\n      dup1\n      0xf68016b7\n      eq\n      tag_14\n      jumpi\n      jump(tag_2)\n    tag_15:\n      dup1\n      0x19cae462\n      eq\n      tag_3\n      jumpi\n      dup1\n      0x22b22ce8\n      eq\n      tag_4\n      jumpi\n      dup1\n      0x3fa4f245\n      eq\n      tag_5\n      jumpi\n      dup1\n      0x4e417a98\n      eq\n      tag_6\n      jumpi\n      dup1\n      0x621a38e5\n      eq\n      tag_7\n      jumpi\n      dup1\n      0x6ec232d3\n      eq\n      tag_8\n      jumpi\n    tag_2:\n      0x00\n      dup1\n      revert\n        /* \"contracts/StateVariable.sol\":1115:1140  uint256 public difficulty */\n    tag_3:\n      tag_16\n      tag_17\n      jump\t// in\n    tag_16:\n      mload(0x40)\n      tag_18\n      swap2\n      swap1\n      tag_19\n      jump\t// in\n    tag_18:\n      mload(0x40)\n      dup1\n      swap2\n      sub\n      swap1\n      return\n        /* \"contracts/StateVariable.sol\":1263:1283  uint256 public nowOn */\n    tag_4:\n      tag_20\n      tag_21\n      jump\t// in\n    tag_20:\n      mload(0x40)\n      tag_22\n      swap2\n      swap1\n      tag_19\n      jump\t// in\n    tag_22:\n      mload(0x40)\n      dup1\n      swap2\n      sub\n      swap1\n      return\n        /* \"contracts/StateVariable.sol\":1236:1256  uint256 public value */\n    tag_5:\n      tag_23\n      tag_24\n      jump\t// in\n    tag_23:\n      mload(0x40)\n      tag_25\n      swap2\n      swap1\n      tag_19\n      jump\t// in\n    tag_25:\n      mload(0x40)\n      dup1\n      swap2\n      sub\n      swap1\n      return\n        /* \"contracts/StateVariable.sol\":1348:1369  bytes public callData */\n    tag_6:\n      tag_26\n      tag_27\n      jump\t// in\n    tag_26:\n      mload(0x40)\n      tag_28\n      swap2\n      swap1\n      tag_29\n      jump\t// in\n    tag_28:\n      mload(0x40)\n      dup1\n      swap2\n      sub\n      swap1\n      return\n        /* \"contracts/StateVariable.sol\":1376:1398  bytes public Firstfour */\n    tag_7:\n      tag_30\n      tag_31\n      jump\t// in\n    tag_30:\n      mload(0x40)\n      tag_32\n      swap2\n      swap1\n      tag_29\n      jump\t// in\n    tag_32:\n      mload(0x40)\n      dup1\n      swap2\n      sub\n      swap1\n      return\n        /* \"contracts/StateVariable.sol\":1318:1341  uint256 public gasprice */\n    tag_8:\n      tag_33\n      tag_34\n      jump\t// in\n    tag_33:\n      mload(0x40)\n      tag_35\n      swap2\n      swap1\n      tag_19\n      jump\t// in\n    tag_35:\n      mload(0x40)\n      dup1\n      swap2\n      sub\n      swap1\n      return\n        /* \"contracts/StateVariable.sol\":1177:1198  uint256 public number */\n    tag_9:\n      tag_36\n      tag_37\n      jump\t// in\n    tag_36:\n      mload(0x40)\n      tag_38\n      swap2\n      swap1\n      tag_19\n      jump\t// in\n    tag_38:\n      mload(0x40)\n      dup1\n      swap2\n      sub\n      swap1\n      return\n        /* \"contracts/StateVariable.sol\":1055:1075  address public owner */\n    tag_10:\n      tag_39\n      tag_40\n      jump\t// in\n    tag_39:\n      mload(0x40)\n      tag_41\n      swap2\n      swap1\n      tag_42\n      jump\t// in\n    tag_41:\n      mload(0x40)\n      dup1\n      swap2\n      sub\n      swap1\n      return\n        /* \"contracts/StateVariable.sol\":1290:1311  uint256 public origin */\n    tag_11:\n      tag_43\n      tag_44\n      jump\t// in\n    tag_43:\n      mload(0x40)\n      tag_45\n      swap2\n      swap1\n      tag_19\n      jump\t// in\n    tag_45:\n      mload(0x40)\n      dup1\n      swap2\n      sub\n      swap1\n      return\n        /* \"contracts/StateVariable.sol\":1205:1229  uint256 public timestamp */\n    tag_12:\n      tag_46\n      tag_47\n      jump\t// in\n    tag_46:\n      mload(0x40)\n      tag_48\n      swap2\n      swap1\n      tag_19\n      jump\t// in\n    tag_48:\n      mload(0x40)\n      dup1\n      swap2\n      sub\n      swap1\n      return\n        /* \"contracts/StateVariable.sol\":1082:1108  address public Myblockhash */\n    tag_13:\n      tag_49\n      tag_50\n      jump\t// in\n    tag_49:\n      mload(0x40)\n      tag_51\n      swap2\n      swap1\n      tag_42\n      jump\t// in\n    tag_51:\n      mload(0x40)\n      dup1\n      swap2\n      sub\n      swap1\n      return\n        /* \"contracts/StateVariable.sol\":1147:1170  uint256 public gasLimit */\n    tag_14:\n      tag_52\n      tag_53\n      jump\t// in\n    tag_52:\n      mload(0x40)\n      tag_54\n      swap2\n      swap1\n      tag_19\n      jump\t// in\n    tag_54:\n      mload(0x40)\n      dup1\n      swap2\n      sub\n      swap1\n      return\n        /* \"contracts/StateVariable.sol\":1115:1140  uint256 public difficulty */\n    tag_17:\n      sload(0x02)\n      dup2\n      jump\t// out\n        /* \"contracts/StateVariable.sol\":1263:1283  uint256 public nowOn */\n    tag_21:\n      sload(0x07)\n      dup2\n      jump\t// out\n        /* \"contracts/StateVariable.sol\":1236:1256  uint256 public value */\n    tag_24:\n      sload(0x06)\n      dup2\n      jump\t// out\n        /* \"contracts/StateVariable.sol\":1348:1369  bytes public callData */\n    tag_27:\n      0x0a\n      dup1\n      sload\n      tag_55\n      swap1\n      tag_56\n      jump\t// in\n    tag_55:\n      dup1\n      0x1f\n      add\n      0x20\n      dup1\n      swap2\n      div\n      mul\n      0x20\n      add\n      mload(0x40)\n      swap1\n      dup2\n      add\n      0x40\n      mstore\n      dup1\n      swap3\n      swap2\n      swap1\n      dup2\n      dup2\n      mstore\n      0x20\n      add\n      dup3\n      dup1\n      sload\n      tag_57\n      swap1\n      tag_56\n      jump\t// in\n    tag_57:\n      dup1\n      iszero\n      tag_58\n      jumpi\n      dup1\n      0x1f\n      lt\n      tag_59\n      jumpi\n      0x0100\n      dup1\n      dup4\n      sload\n      div\n      mul\n      dup4\n      mstore\n      swap2\n      0x20\n      add\n      swap2\n      jump(tag_58)\n    tag_59:\n      dup3\n      add\n      swap2\n      swap1\n      0x00\n      mstore\n      keccak256(0x00, 0x20)\n      swap1\n    tag_60:\n      dup2\n      sload\n      dup2\n      mstore\n      swap1\n      0x01\n      add\n      swap1\n      0x20\n      add\n      dup1\n      dup4\n      gt\n      tag_60\n      jumpi\n      dup3\n      swap1\n      sub\n      0x1f\n      and\n      dup3\n      add\n      swap2\n    tag_58:\n      pop\n      pop\n      pop\n      pop\n      pop\n      dup2\n      jump\t// out\n        /* \"contracts/StateVariable.sol\":1376:1398  bytes public Firstfour */\n    tag_31:\n      0x0b\n      dup1\n      sload\n      tag_61\n      swap1\n      tag_56\n      jump\t// in\n    tag_61:\n      dup1\n      0x1f\n      add\n      0x20\n      dup1\n      swap2\n      div\n      mul\n      0x20\n      add\n      mload(0x40)\n      swap1\n      dup2\n      add\n      0x40\n      mstore\n      dup1\n      swap3\n      swap2\n      swap1\n      dup2\n      dup2\n      mstore\n      0x20\n      add\n      dup3\n      dup1\n      sload\n      tag_62\n      swap1\n      tag_56\n      jump\t// in\n    tag_62:\n      dup1\n      iszero\n      tag_63\n      jumpi\n      dup1\n      0x1f\n      lt\n      tag_64\n      jumpi\n      0x0100\n      dup1\n      dup4\n      sload\n      div\n      mul\n      dup4\n      mstore\n      swap2\n      0x20\n      add\n      swap2\n      jump(tag_63)\n    tag_64:\n      dup3\n      add\n      swap2\n      swap1\n      0x00\n      mstore\n      keccak256(0x00, 0x20)\n      swap1\n    tag_65:\n      dup2\n      sload\n      dup2\n      mstore\n      swap1\n      0x01\n      add\n      swap1\n      0x20\n      add\n      dup1\n      dup4\n      gt\n      tag_65\n      jumpi\n      dup3\n      swap1\n      sub\n      0x1f\n      and\n      dup3\n      add\n      swap2\n    tag_63:\n      pop\n      pop\n      pop\n      pop\n      pop\n      dup2\n      jump\t// out\n        /* \"contracts/StateVariable.sol\":1318:1341  uint256 public gasprice */\n    tag_34:\n      sload(0x09)\n      dup2\n      jump\t// out\n        /* \"contracts/StateVariable.sol\":1177:1198  uint256 public number */\n    tag_37:\n      sload(0x04)\n      dup2\n      jump\t// out\n        /* \"contracts/StateVariable.sol\":1055:1075  address public owner */\n    tag_40:\n      0x00\n      dup1\n      sload\n      swap1\n      0x0100\n      exp\n      swap1\n      div\n      0xffffffffffffffffffffffffffffffffffffffff\n      and\n      dup2\n      jump\t// out\n        /* \"contracts/StateVariable.sol\":1290:1311  uint256 public origin */\n    tag_44:\n      sload(0x08)\n      dup2\n      jump\t// out\n        /* \"contracts/StateVariable.sol\":1205:1229  uint256 public timestamp */\n    tag_47:\n      sload(0x05)\n      dup2\n      jump\t// out\n        /* \"contracts/StateVariable.sol\":1082:1108  address public Myblockhash */\n    tag_50:\n      0x01\n      0x00\n      swap1\n      sload\n      swap1\n      0x0100\n      exp\n      swap1\n      div\n      0xffffffffffffffffffffffffffffffffffffffff\n      and\n      dup2\n      jump\t// out\n        /* \"contracts/StateVariable.sol\":1147:1170  uint256 public gasLimit */\n    tag_53:\n      sload(0x03)\n      dup2\n      jump\t// out\n        /* \"#utility.yul\":7:84   */\n    tag_66:\n        /* \"#utility.yul\":44:51   */\n      0x00\n        /* \"#utility.yul\":73:78   */\n      dup2\n        /* \"#utility.yul\":62:78   */\n      swap1\n      pop\n        /* \"#utility.yul\":7:84   */\n      swap2\n      swap1\n      pop\n      jump\t// out\n        /* \"#utility.yul\":90:208   */\n    tag_67:\n        /* \"#utility.yul\":177:201   */\n      tag_80\n        /* \"#utility.yul\":195:200   */\n      dup2\n        /* \"#utility.yul\":177:201   */\n      tag_66\n      jump\t// in\n    tag_80:\n        /* \"#utility.yul\":172:175   */\n      dup3\n        /* \"#utility.yul\":165:202   */\n      mstore\n        /* \"#utility.yul\":90:208   */\n      pop\n      pop\n      jump\t// out\n        /* \"#utility.yul\":214:436   */\n    tag_19:\n        /* \"#utility.yul\":307:311   */\n      0x00\n        /* \"#utility.yul\":345:347   */\n      0x20\n        /* \"#utility.yul\":334:343   */\n      dup3\n        /* \"#utility.yul\":330:348   */\n      add\n        /* \"#utility.yul\":322:348   */\n      swap1\n      pop\n        /* \"#utility.yul\":358:429   */\n      tag_82\n        /* \"#utility.yul\":426:427   */\n      0x00\n        /* \"#utility.yul\":415:424   */\n      dup4\n        /* \"#utility.yul\":411:428   */\n      add\n        /* \"#utility.yul\":402:408   */\n      dup5\n        /* \"#utility.yul\":358:429   */\n      tag_67\n      jump\t// in\n    tag_82:\n        /* \"#utility.yul\":214:436   */\n      swap3\n      swap2\n      pop\n      pop\n      jump\t// out\n        /* \"#utility.yul\":442:540   */\n    tag_68:\n        /* \"#utility.yul\":493:499   */\n      0x00\n        /* \"#utility.yul\":527:532   */\n      dup2\n        /* \"#utility.yul\":521:533   */\n      mload\n        /* \"#utility.yul\":511:533   */\n      swap1\n      pop\n        /* \"#utility.yul\":442:540   */\n      swap2\n      swap1\n      pop\n      jump\t// out\n        /* \"#utility.yul\":546:714   */\n    tag_69:\n        /* \"#utility.yul\":629:640   */\n      0x00\n        /* \"#utility.yul\":663:669   */\n      dup3\n        /* \"#utility.yul\":658:661   */\n      dup3\n        /* \"#utility.yul\":651:670   */\n      mstore\n        /* \"#utility.yul\":703:707   */\n      0x20\n        /* \"#utility.yul\":698:701   */\n      dup3\n        /* \"#utility.yul\":694:708   */\n      add\n        /* \"#utility.yul\":679:708   */\n      swap1\n      pop\n        /* \"#utility.yul\":546:714   */\n      swap3\n      swap2\n      pop\n      pop\n      jump\t// out\n        /* \"#utility.yul\":720:859   */\n    tag_70:\n        /* \"#utility.yul\":809:815   */\n      dup3\n        /* \"#utility.yul\":804:807   */\n      dup2\n        /* \"#utility.yul\":799:802   */\n      dup4\n        /* \"#utility.yul\":793:816   */\n      mcopy\n        /* \"#utility.yul\":850:851   */\n      0x00\n        /* \"#utility.yul\":841:847   */\n      dup4\n        /* \"#utility.yul\":836:839   */\n      dup4\n        /* \"#utility.yul\":832:848   */\n      add\n        /* \"#utility.yul\":825:852   */\n      mstore\n        /* \"#utility.yul\":720:859   */\n      pop\n      pop\n      pop\n      jump\t// out\n        /* \"#utility.yul\":865:967   */\n    tag_71:\n        /* \"#utility.yul\":906:912   */\n      0x00\n        /* \"#utility.yul\":957:959   */\n      0x1f\n        /* \"#utility.yul\":953:960   */\n      not\n        /* \"#utility.yul\":948:950   */\n      0x1f\n        /* \"#utility.yul\":941:946   */\n      dup4\n        /* \"#utility.yul\":937:951   */\n      add\n        /* \"#utility.yul\":933:961   */\n      and\n        /* \"#utility.yul\":923:961   */\n      swap1\n      pop\n        /* \"#utility.yul\":865:967   */\n      swap2\n      swap1\n      pop\n      jump\t// out\n        /* \"#utility.yul\":973:1346   */\n    tag_72:\n        /* \"#utility.yul\":1059:1062   */\n      0x00\n        /* \"#utility.yul\":1087:1125   */\n      tag_88\n        /* \"#utility.yul\":1119:1124   */\n      dup3\n        /* \"#utility.yul\":1087:1125   */\n      tag_68\n      jump\t// in\n    tag_88:\n        /* \"#utility.yul\":1141:1211   */\n      tag_89\n        /* \"#utility.yul\":1204:1210   */\n      dup2\n        /* \"#utility.yul\":1199:1202   */\n      dup6\n        /* \"#utility.yul\":1141:1211   */\n      tag_69\n      jump\t// in\n    tag_89:\n        /* \"#utility.yul\":1134:1211   */\n      swap4\n      pop\n        /* \"#utility.yul\":1220:1285   */\n      tag_90\n        /* \"#utility.yul\":1278:1284   */\n      dup2\n        /* \"#utility.yul\":1273:1276   */\n      dup6\n        /* \"#utility.yul\":1266:1270   */\n      0x20\n        /* \"#utility.yul\":1259:1264   */\n      dup7\n        /* \"#utility.yul\":1255:1271   */\n      add\n        /* \"#utility.yul\":1220:1285   */\n      tag_70\n      jump\t// in\n    tag_90:\n        /* \"#utility.yul\":1310:1339   */\n      tag_91\n        /* \"#utility.yul\":1332:1338   */\n      dup2\n        /* \"#utility.yul\":1310:1339   */\n      tag_71\n      jump\t// in\n    tag_91:\n        /* \"#utility.yul\":1305:1308   */\n      dup5\n        /* \"#utility.yul\":1301:1340   */\n      add\n        /* \"#utility.yul\":1294:1340   */\n      swap2\n      pop\n        /* \"#utility.yul\":1063:1346   */\n      pop\n        /* \"#utility.yul\":973:1346   */\n      swap3\n      swap2\n      pop\n      pop\n      jump\t// out\n        /* \"#utility.yul\":1352:1661   */\n    tag_29:\n        /* \"#utility.yul\":1463:1467   */\n      0x00\n        /* \"#utility.yul\":1501:1503   */\n      0x20\n        /* \"#utility.yul\":1490:1499   */\n      dup3\n        /* \"#utility.yul\":1486:1504   */\n      add\n        /* \"#utility.yul\":1478:1504   */\n      swap1\n      pop\n        /* \"#utility.yul\":1550:1559   */\n      dup2\n        /* \"#utility.yul\":1544:1548   */\n      dup2\n        /* \"#utility.yul\":1540:1560   */\n      sub\n        /* \"#utility.yul\":1536:1537   */\n      0x00\n        /* \"#utility.yul\":1525:1534   */\n      dup4\n        /* \"#utility.yul\":1521:1538   */\n      add\n        /* \"#utility.yul\":1514:1561   */\n      mstore\n        /* \"#utility.yul\":1578:1654   */\n      tag_93\n        /* \"#utility.yul\":1649:1653   */\n      dup2\n        /* \"#utility.yul\":1640:1646   */\n      dup5\n        /* \"#utility.yul\":1578:1654   */\n      tag_72\n      jump\t// in\n    tag_93:\n        /* \"#utility.yul\":1570:1654   */\n      swap1\n      pop\n        /* \"#utility.yul\":1352:1661   */\n      swap3\n      swap2\n      pop\n      pop\n      jump\t// out\n        /* \"#utility.yul\":1667:1793   */\n    tag_73:\n        /* \"#utility.yul\":1704:1711   */\n      0x00\n        /* \"#utility.yul\":1744:1786   */\n      0xffffffffffffffffffffffffffffffffffffffff\n        /* \"#utility.yul\":1737:1742   */\n      dup3\n        /* \"#utility.yul\":1733:1787   */\n      and\n        /* \"#utility.yul\":1722:1787   */\n      swap1\n      pop\n        /* \"#utility.yul\":1667:1793   */\n      swap2\n      swap1\n      pop\n      jump\t// out\n        /* \"#utility.yul\":1799:1895   */\n    tag_74:\n        /* \"#utility.yul\":1836:1843   */\n      0x00\n        /* \"#utility.yul\":1865:1889   */\n      tag_96\n        /* \"#utility.yul\":1883:1888   */\n      dup3\n        /* \"#utility.yul\":1865:1889   */\n      tag_73\n      jump\t// in\n    tag_96:\n        /* \"#utility.yul\":1854:1889   */\n      swap1\n      pop\n        /* \"#utility.yul\":1799:1895   */\n      swap2\n      swap1\n      pop\n      jump\t// out\n        /* \"#utility.yul\":1901:2019   */\n    tag_75:\n        /* \"#utility.yul\":1988:2012   */\n      tag_98\n        /* \"#utility.yul\":2006:2011   */\n      dup2\n        /* \"#utility.yul\":1988:2012   */\n      tag_74\n      jump\t// in\n    tag_98:\n        /* \"#utility.yul\":1983:1986   */\n      dup3\n        /* \"#utility.yul\":1976:2013   */\n      mstore\n        /* \"#utility.yul\":1901:2019   */\n      pop\n      pop\n      jump\t// out\n        /* \"#utility.yul\":2025:2247   */\n    tag_42:\n        /* \"#utility.yul\":2118:2122   */\n      0x00\n        /* \"#utility.yul\":2156:2158   */\n      0x20\n        /* \"#utility.yul\":2145:2154   */\n      dup3\n        /* \"#utility.yul\":2141:2159   */\n      add\n        /* \"#utility.yul\":2133:2159   */\n      swap1\n      pop\n        /* \"#utility.yul\":2169:2240   */\n      tag_100\n        /* \"#utility.yul\":2237:2238   */\n      0x00\n        /* \"#utility.yul\":2226:2235   */\n      dup4\n        /* \"#utility.yul\":2222:2239   */\n      add\n        /* \"#utility.yul\":2213:2219   */\n      dup5\n        /* \"#utility.yul\":2169:2240   */\n      tag_75\n      jump\t// in\n    tag_100:\n        /* \"#utility.yul\":2025:2247   */\n      swap3\n      swap2\n      pop\n      pop\n      jump\t// out\n        /* \"#utility.yul\":2253:2433   */\n    tag_76:\n        /* \"#utility.yul\":2301:2378   */\n      0x4e487b7100000000000000000000000000000000000000000000000000000000\n        /* \"#utility.yul\":2298:2299   */\n      0x00\n        /* \"#utility.yul\":2291:2379   */\n      mstore\n        /* \"#utility.yul\":2398:2402   */\n      0x22\n        /* \"#utility.yul\":2395:2396   */\n      0x04\n        /* \"#utility.yul\":2388:2403   */\n      mstore\n        /* \"#utility.yul\":2422:2426   */\n      0x24\n        /* \"#utility.yul\":2419:2420   */\n      0x00\n        /* \"#utility.yul\":2412:2427   */\n      revert\n        /* \"#utility.yul\":2439:2759   */\n    tag_56:\n        /* \"#utility.yul\":2483:2489   */\n      0x00\n        /* \"#utility.yul\":2520:2521   */\n      0x02\n        /* \"#utility.yul\":2514:2518   */\n      dup3\n        /* \"#utility.yul\":2510:2522   */\n      div\n        /* \"#utility.yul\":2500:2522   */\n      swap1\n      pop\n        /* \"#utility.yul\":2567:2568   */\n      0x01\n        /* \"#utility.yul\":2561:2565   */\n      dup3\n        /* \"#utility.yul\":2557:2569   */\n      and\n        /* \"#utility.yul\":2588:2606   */\n      dup1\n        /* \"#utility.yul\":2578:2659   */\n      tag_103\n      jumpi\n        /* \"#utility.yul\":2644:2648   */\n      0x7f\n        /* \"#utility.yul\":2636:2642   */\n      dup3\n        /* \"#utility.yul\":2632:2649   */\n      and\n        /* \"#utility.yul\":2622:2649   */\n      swap2\n      pop\n        /* \"#utility.yul\":2578:2659   */\n    tag_103:\n        /* \"#utility.yul\":2706:2708   */\n      0x20\n        /* \"#utility.yul\":2698:2704   */\n      dup3\n        /* \"#utility.yul\":2695:2709   */\n      lt\n        /* \"#utility.yul\":2675:2693   */\n      dup2\n        /* \"#utility.yul\":2672:2710   */\n      sub\n        /* \"#utility.yul\":2669:2753   */\n      tag_104\n      jumpi\n        /* \"#utility.yul\":2725:2743   */\n      tag_105\n      tag_76\n      jump\t// in\n    tag_105:\n        /* \"#utility.yul\":2669:2753   */\n    tag_104:\n        /* \"#utility.yul\":2490:2759   */\n      pop\n        /* \"#utility.yul\":2439:2759   */\n      swap2\n      swap1\n      pop\n      jump\t// out\n\n    auxdata: 0xa2646970667358221220a648334eb12ca74770a8bbd45437bcf119dc89c32f2c6c48dcd4b65bbe85a93f64736f6c634300081a0033\n}\n",
				"bytecode": {
					"linkReferences": {},
					"object": "608060405234801561000f575f80fd5b50335f806101000a81548173ffffffffffffffffffffffffffffffffffffffff021916908373ffffffffffffffffffffffffffffffffffffffff1602179055504160015f6101000a81548173ffffffffffffffffffffffffffffffffffffffff021916908373ffffffffffffffffffffffffffffffffffffffff160217905550446002819055504560038190555043600481905550426005819055503a6009819055505f36600a91826100c3929190610303565b506103d0565b5f82905092915050565b7f4e487b71000000000000000000000000000000000000000000000000000000005f52604160045260245ffd5b7f4e487b71000000000000000000000000000000000000000000000000000000005f52602260045260245ffd5b5f600282049050600182168061014457607f821691505b60208210810361015757610156610100565b5b50919050565b5f819050815f5260205f209050919050565b5f6020601f8301049050919050565b5f82821b905092915050565b5f600883026101b97fffffffffffffffffffffffffffffffffffffffffffffffffffffffffffffffff8261017e565b6101c3868361017e565b95508019841693508086168417925050509392505050565b5f819050919050565b5f819050919050565b5f6102076102026101fd846101db565b6101e4565b6101db565b9050919050565b5f819050919050565b610220836101ed565b61023461022c8261020e565b84845461018a565b825550505050565b5f90565b61024861023c565b610253818484610217565b505050565b5b818110156102765761026b5f82610240565b600181019050610259565b5050565b601f8211156102bb5761028c8161015d565b6102958461016f565b810160208510156102a4578190505b6102b86102b08561016f565b830182610258565b50505b505050565b5f82821c905092915050565b5f6102db5f19846008026102c0565b1980831691505092915050565b5f6102f383836102cc565b9150826002028217905092915050565b61030d83836100c9565b67ffffffffffffffff811115610326576103256100d3565b5b610330825461012d565b61033b82828561027a565b5f601f831160018114610368575f8415610356578287013590505b61036085826102e8565b8655506103c7565b601f1984166103768661015d565b5f5b8281101561039d57848901358255600182019150602085019450602081019050610378565b868310156103ba57848901356103b6601f8916826102cc565b8355505b6001600288020188555050505b50505050505050565b61055a806103dd5f395ff3fe608060405234801561000f575f80fd5b50600436106100b2575f3560e01c80638381f58a1161006f5780638381f58a1461016a5780638da5cb5b14610188578063938b5f32146101a6578063b80777ea146101c4578063e976f0bc146101e2578063f68016b714610200576100b2565b806319cae462146100b657806322b22ce8146100d45780633fa4f245146100f25780634e417a9814610110578063621a38e51461012e5780636ec232d31461014c575b5f80fd5b6100be61021e565b6040516100cb91906103c6565b60405180910390f35b6100dc610224565b6040516100e991906103c6565b60405180910390f35b6100fa61022a565b60405161010791906103c6565b60405180910390f35b610118610230565b604051610125919061044f565b60405180910390f35b6101366102bc565b604051610143919061044f565b60405180910390f35b610154610348565b60405161016191906103c6565b60405180910390f35b61017261034e565b60405161017f91906103c6565b60405180910390f35b610190610354565b60405161019d91906104ae565b60405180910390f35b6101ae610377565b6040516101bb91906103c6565b60405180910390f35b6101cc61037d565b6040516101d991906103c6565b60405180910390f35b6101ea610383565b6040516101f791906104ae565b60405180910390f35b6102086103a8565b60405161021591906103c6565b60405180910390f35b60025481565b60075481565b60065481565b600a805461023d906104f4565b80601f0160208091040260200160405190810160405280929190818152602001828054610269906104f4565b80156102b45780601f1061028b576101008083540402835291602001916102b4565b820191905f5260205f20905b81548152906001019060200180831161029757829003601f168201915b505050505081565b600b80546102c9906104f4565b80601f01602080910402602001604051908101604052809291908181526020018280546102f5906104f4565b80156103405780601f1061031757610100808354040283529160200191610340565b820191905f5260205f20905b81548152906001019060200180831161032357829003601f168201915b505050505081565b60095481565b60045481565b5f8054906101000a900473ffffffffffffffffffffffffffffffffffffffff1681565b60085481565b60055481565b60015f9054906101000a900473ffffffffffffffffffffffffffffffffffffffff1681565b60035481565b5f819050919050565b6103c0816103ae565b82525050565b5f6020820190506103d95f8301846103b7565b92915050565b5f81519050919050565b5f82825260208201905092915050565b8281835e5f83830152505050565b5f601f19601f8301169050919050565b5f610421826103df565b61042b81856103e9565b935061043b8185602086016103f9565b61044481610407565b840191505092915050565b5f6020820190508181035f8301526104678184610417565b905092915050565b5f73ffffffffffffffffffffffffffffffffffffffff82169050919050565b5f6104988261046f565b9050919050565b6104a88161048e565b82525050565b5f6020820190506104c15f83018461049f565b92915050565b7f4e487b71000000000000000000000000000000000000000000000000000000005f52602260045260245ffd5b5f600282049050600182168061050b57607f821691505b60208210810361051e5761051d6104c7565b5b5091905056fea2646970667358221220a648334eb12ca74770a8bbd45437bcf119dc89c32f2c6c48dcd4b65bbe85a93f64736f6c634300081a0033",
					"opcodes": "PUSH1 0x80 PUSH1 0x40 MSTORE CALLVALUE DUP1 ISZERO PUSH2 0xF JUMPI PUSH0 DUP1 REVERT JUMPDEST POP CALLER PUSH0 DUP1 PUSH2 0x100 EXP DUP2 SLOAD DUP2 PUSH20 0xFFFFFFFFFFFFFFFFFFFFFFFFFFFFFFFFFFFFFFFF MUL NOT AND SWAP1 DUP4 PUSH20 0xFFFFFFFFFFFFFFFFFFFFFFFFFFFFFFFFFFFFFFFF AND MUL OR SWAP1 SSTORE POP COINBASE PUSH1 0x1 PUSH0 PUSH2 0x100 EXP DUP2 SLOAD DUP2 PUSH20 0xFFFFFFFFFFFFFFFFFFFFFFFFFFFFFFFFFFFFFFFF MUL NOT AND SWAP1 DUP4 PUSH20 0xFFFFFFFFFFFFFFFFFFFFFFFFFFFFFFFFFFFFFFFF AND MUL OR SWAP1 SSTORE POP PREVRANDAO PUSH1 0x2 DUP2 SWAP1 SSTORE POP GASLIMIT PUSH1 0x3 DUP2 SWAP1 SSTORE POP NUMBER PUSH1 0x4 DUP2 SWAP1 SSTORE POP TIMESTAMP PUSH1 0x5 DUP2 SWAP1 SSTORE POP GASPRICE PUSH1 0x9 DUP2 SWAP1 SSTORE POP PUSH0 CALLDATASIZE PUSH1 0xA SWAP2 DUP3 PUSH2 0xC3 SWAP3 SWAP2 SWAP1 PUSH2 0x303 JUMP JUMPDEST POP PUSH2 0x3D0 JUMP JUMPDEST PUSH0 DUP3 SWAP1 POP SWAP3 SWAP2 POP POP JUMP JUMPDEST PUSH32 0x4E487B7100000000000000000000000000000000000000000000000000000000 PUSH0 MSTORE PUSH1 0x41 PUSH1 0x4 MSTORE PUSH1 0x24 PUSH0 REVERT JUMPDEST PUSH32 0x4E487B7100000000000000000000000000000000000000000000000000000000 PUSH0 MSTORE PUSH1 0x22 PUSH1 0x4 MSTORE PUSH1 0x24 PUSH0 REVERT JUMPDEST PUSH0 PUSH1 0x2 DUP3 DIV SWAP1 POP PUSH1 0x1 DUP3 AND DUP1 PUSH2 0x144 JUMPI PUSH1 0x7F DUP3 AND SWAP2 POP JUMPDEST PUSH1 0x20 DUP3 LT DUP2 SUB PUSH2 0x157 JUMPI PUSH2 0x156 PUSH2 0x100 JUMP JUMPDEST JUMPDEST POP SWAP2 SWAP1 POP JUMP JUMPDEST PUSH0 DUP2 SWAP1 POP DUP2 PUSH0 MSTORE PUSH1 0x20 PUSH0 KECCAK256 SWAP1 POP SWAP2 SWAP1 POP JUMP JUMPDEST PUSH0 PUSH1 0x20 PUSH1 0x1F DUP4 ADD DIV SWAP1 POP SWAP2 SWAP1 POP JUMP JUMPDEST PUSH0 DUP3 DUP3 SHL SWAP1 POP SWAP3 SWAP2 POP POP JUMP JUMPDEST PUSH0 PUSH1 0x8 DUP4 MUL PUSH2 0x1B9 PUSH32 0xFFFFFFFFFFFFFFFFFFFFFFFFFFFFFFFFFFFFFFFFFFFFFFFFFFFFFFFFFFFFFFFF DUP3 PUSH2 0x17E JUMP JUMPDEST PUSH2 0x1C3 DUP7 DUP4 PUSH2 0x17E JUMP JUMPDEST SWAP6 POP DUP1 NOT DUP5 AND SWAP4 POP DUP1 DUP7 AND DUP5 OR SWAP3 POP POP POP SWAP4 SWAP3 POP POP POP JUMP JUMPDEST PUSH0 DUP2 SWAP1 POP SWAP2 SWAP1 POP JUMP JUMPDEST PUSH0 DUP2 SWAP1 POP SWAP2 SWAP1 POP JUMP JUMPDEST PUSH0 PUSH2 0x207 PUSH2 0x202 PUSH2 0x1FD DUP5 PUSH2 0x1DB JUMP JUMPDEST PUSH2 0x1E4 JUMP JUMPDEST PUSH2 0x1DB JUMP JUMPDEST SWAP1 POP SWAP2 SWAP1 POP JUMP JUMPDEST PUSH0 DUP2 SWAP1 POP SWAP2 SWAP1 POP JUMP JUMPDEST PUSH2 0x220 DUP4 PUSH2 0x1ED JUMP JUMPDEST PUSH2 0x234 PUSH2 0x22C DUP3 PUSH2 0x20E JUMP JUMPDEST DUP5 DUP5 SLOAD PUSH2 0x18A JUMP JUMPDEST DUP3 SSTORE POP POP POP POP JUMP JUMPDEST PUSH0 SWAP1 JUMP JUMPDEST PUSH2 0x248 PUSH2 0x23C JUMP JUMPDEST PUSH2 0x253 DUP2 DUP5 DUP5 PUSH2 0x217 JUMP JUMPDEST POP POP POP JUMP JUMPDEST JUMPDEST DUP2 DUP2 LT ISZERO PUSH2 0x276 JUMPI PUSH2 0x26B PUSH0 DUP3 PUSH2 0x240 JUMP JUMPDEST PUSH1 0x1 DUP2 ADD SWAP1 POP PUSH2 0x259 JUMP JUMPDEST POP POP JUMP JUMPDEST PUSH1 0x1F DUP3 GT ISZERO PUSH2 0x2BB JUMPI PUSH2 0x28C DUP2 PUSH2 0x15D JUMP JUMPDEST PUSH2 0x295 DUP5 PUSH2 0x16F JUMP JUMPDEST DUP2 ADD PUSH1 0x20 DUP6 LT ISZERO PUSH2 0x2A4 JUMPI DUP2 SWAP1 POP JUMPDEST PUSH2 0x2B8 PUSH2 0x2B0 DUP6 PUSH2 0x16F JUMP JUMPDEST DUP4 ADD DUP3 PUSH2 0x258 JUMP JUMPDEST POP POP JUMPDEST POP POP POP JUMP JUMPDEST PUSH0 DUP3 DUP3 SHR SWAP1 POP SWAP3 SWAP2 POP POP JUMP JUMPDEST PUSH0 PUSH2 0x2DB PUSH0 NOT DUP5 PUSH1 0x8 MUL PUSH2 0x2C0 JUMP JUMPDEST NOT DUP1 DUP4 AND SWAP2 POP POP SWAP3 SWAP2 POP POP JUMP JUMPDEST PUSH0 PUSH2 0x2F3 DUP4 DUP4 PUSH2 0x2CC JUMP JUMPDEST SWAP2 POP DUP3 PUSH1 0x2 MUL DUP3 OR SWAP1 POP SWAP3 SWAP2 POP POP JUMP JUMPDEST PUSH2 0x30D DUP4 DUP4 PUSH2 0xC9 JUMP JUMPDEST PUSH8 0xFFFFFFFFFFFFFFFF DUP2 GT ISZERO PUSH2 0x326 JUMPI PUSH2 0x325 PUSH2 0xD3 JUMP JUMPDEST JUMPDEST PUSH2 0x330 DUP3 SLOAD PUSH2 0x12D JUMP JUMPDEST PUSH2 0x33B DUP3 DUP3 DUP6 PUSH2 0x27A JUMP JUMPDEST PUSH0 PUSH1 0x1F DUP4 GT PUSH1 0x1 DUP2 EQ PUSH2 0x368 JUMPI PUSH0 DUP5 ISZERO PUSH2 0x356 JUMPI DUP3 DUP8 ADD CALLDATALOAD SWAP1 POP JUMPDEST PUSH2 0x360 DUP6 DUP3 PUSH2 0x2E8 JUMP JUMPDEST DUP7 SSTORE POP PUSH2 0x3C7 JUMP JUMPDEST PUSH1 0x1F NOT DUP5 AND PUSH2 0x376 DUP7 PUSH2 0x15D JUMP JUMPDEST PUSH0 JUMPDEST DUP3 DUP2 LT ISZERO PUSH2 0x39D JUMPI DUP5 DUP10 ADD CALLDATALOAD DUP3 SSTORE PUSH1 0x1 DUP3 ADD SWAP2 POP PUSH1 0x20 DUP6 ADD SWAP5 POP PUSH1 0x20 DUP2 ADD SWAP1 POP PUSH2 0x378 JUMP JUMPDEST DUP7 DUP4 LT ISZERO PUSH2 0x3BA JUMPI DUP5 DUP10 ADD CALLDATALOAD PUSH2 0x3B6 PUSH1 0x1F DUP10 AND DUP3 PUSH2 0x2CC JUMP JUMPDEST DUP4 SSTORE POP JUMPDEST PUSH1 0x1 PUSH1 0x2 DUP9 MUL ADD DUP9 SSTORE POP POP POP JUMPDEST POP POP POP POP POP POP POP JUMP JUMPDEST PUSH2 0x55A DUP1 PUSH2 0x3DD PUSH0 CODECOPY PUSH0 RETURN INVALID PUSH1 0x80 PUSH1 0x40 MSTORE CALLVALUE DUP1 ISZERO PUSH2 0xF JUMPI PUSH0 DUP1 REVERT JUMPDEST POP PUSH1 0x4 CALLDATASIZE LT PUSH2 0xB2 JUMPI PUSH0 CALLDATALOAD PUSH1 0xE0 SHR DUP1 PUSH4 0x8381F58A GT PUSH2 0x6F JUMPI DUP1 PUSH4 0x8381F58A EQ PUSH2 0x16A JUMPI DUP1 PUSH4 0x8DA5CB5B EQ PUSH2 0x188 JUMPI DUP1 PUSH4 0x938B5F32 EQ PUSH2 0x1A6 JUMPI DUP1 PUSH4 0xB80777EA EQ PUSH2 0x1C4 JUMPI DUP1 PUSH4 0xE976F0BC EQ PUSH2 0x1E2 JUMPI DUP1 PUSH4 0xF68016B7 EQ PUSH2 0x200 JUMPI PUSH2 0xB2 JUMP JUMPDEST DUP1 PUSH4 0x19CAE462 EQ PUSH2 0xB6 JUMPI DUP1 PUSH4 0x22B22CE8 EQ PUSH2 0xD4 JUMPI DUP1 PUSH4 0x3FA4F245 EQ PUSH2 0xF2 JUMPI DUP1 PUSH4 0x4E417A98 EQ PUSH2 0x110 JUMPI DUP1 PUSH4 0x621A38E5 EQ PUSH2 0x12E JUMPI DUP1 PUSH4 0x6EC232D3 EQ PUSH2 0x14C JUMPI JUMPDEST PUSH0 DUP1 REVERT JUMPDEST PUSH2 0xBE PUSH2 0x21E JUMP JUMPDEST PUSH1 0x40 MLOAD PUSH2 0xCB SWAP2 SWAP1 PUSH2 0x3C6 JUMP JUMPDEST PUSH1 0x40 MLOAD DUP1 SWAP2 SUB SWAP1 RETURN JUMPDEST PUSH2 0xDC PUSH2 0x224 JUMP JUMPDEST PUSH1 0x40 MLOAD PUSH2 0xE9 SWAP2 SWAP1 PUSH2 0x3C6 JUMP JUMPDEST PUSH1 0x40 MLOAD DUP1 SWAP2 SUB SWAP1 RETURN JUMPDEST PUSH2 0xFA PUSH2 0x22A JUMP JUMPDEST PUSH1 0x40 MLOAD PUSH2 0x107 SWAP2 SWAP1 PUSH2 0x3C6 JUMP JUMPDEST PUSH1 0x40 MLOAD DUP1 SWAP2 SUB SWAP1 RETURN JUMPDEST PUSH2 0x118 PUSH2 0x230 JUMP JUMPDEST PUSH1 0x40 MLOAD PUSH2 0x125 SWAP2 SWAP1 PUSH2 0x44F JUMP JUMPDEST PUSH1 0x40 MLOAD DUP1 SWAP2 SUB SWAP1 RETURN JUMPDEST PUSH2 0x136 PUSH2 0x2BC JUMP JUMPDEST PUSH1 0x40 MLOAD PUSH2 0x143 SWAP2 SWAP1 PUSH2 0x44F JUMP JUMPDEST PUSH1 0x40 MLOAD DUP1 SWAP2 SUB SWAP1 RETURN JUMPDEST PUSH2 0x154 PUSH2 0x348 JUMP JUMPDEST PUSH1 0x40 MLOAD PUSH2 0x161 SWAP2 SWAP1 PUSH2 0x3C6 JUMP JUMPDEST PUSH1 0x40 MLOAD DUP1 SWAP2 SUB SWAP1 RETURN JUMPDEST PUSH2 0x172 PUSH2 0x34E JUMP JUMPDEST PUSH1 0x40 MLOAD PUSH2 0x17F SWAP2 SWAP1 PUSH2 0x3C6 JUMP JUMPDEST PUSH1 0x40 MLOAD DUP1 SWAP2 SUB SWAP1 RETURN JUMPDEST PUSH2 0x190 PUSH2 0x354 JUMP JUMPDEST PUSH1 0x40 MLOAD PUSH2 0x19D SWAP2 SWAP1 PUSH2 0x4AE JUMP JUMPDEST PUSH1 0x40 MLOAD DUP1 SWAP2 SUB SWAP1 RETURN JUMPDEST PUSH2 0x1AE PUSH2 0x377 JUMP JUMPDEST PUSH1 0x40 MLOAD PUSH2 0x1BB SWAP2 SWAP1 PUSH2 0x3C6 JUMP JUMPDEST PUSH1 0x40 MLOAD DUP1 SWAP2 SUB SWAP1 RETURN JUMPDEST PUSH2 0x1CC PUSH2 0x37D JUMP JUMPDEST PUSH1 0x40 MLOAD PUSH2 0x1D9 SWAP2 SWAP1 PUSH2 0x3C6 JUMP JUMPDEST PUSH1 0x40 MLOAD DUP1 SWAP2 SUB SWAP1 RETURN JUMPDEST PUSH2 0x1EA PUSH2 0x383 JUMP JUMPDEST PUSH1 0x40 MLOAD PUSH2 0x1F7 SWAP2 SWAP1 PUSH2 0x4AE JUMP JUMPDEST PUSH1 0x40 MLOAD DUP1 SWAP2 SUB SWAP1 RETURN JUMPDEST PUSH2 0x208 PUSH2 0x3A8 JUMP JUMPDEST PUSH1 0x40 MLOAD PUSH2 0x215 SWAP2 SWAP1 PUSH2 0x3C6 JUMP JUMPDEST PUSH1 0x40 MLOAD DUP1 SWAP2 SUB SWAP1 RETURN JUMPDEST PUSH1 0x2 SLOAD DUP2 JUMP JUMPDEST PUSH1 0x7 SLOAD DUP2 JUMP JUMPDEST PUSH1 0x6 SLOAD DUP2 JUMP JUMPDEST PUSH1 0xA DUP1 SLOAD PUSH2 0x23D SWAP1 PUSH2 0x4F4 JUMP JUMPDEST DUP1 PUSH1 0x1F ADD PUSH1 0x20 DUP1 SWAP2 DIV MUL PUSH1 0x20 ADD PUSH1 0x40 MLOAD SWAP1 DUP2 ADD PUSH1 0x40 MSTORE DUP1 SWAP3 SWAP2 SWAP1 DUP2 DUP2 MSTORE PUSH1 0x20 ADD DUP3 DUP1 SLOAD PUSH2 0x269 SWAP1 PUSH2 0x4F4 JUMP JUMPDEST DUP1 ISZERO PUSH2 0x2B4 JUMPI DUP1 PUSH1 0x1F LT PUSH2 0x28B JUMPI PUSH2 0x100 DUP1 DUP4 SLOAD DIV MUL DUP4 MSTORE SWAP2 PUSH1 0x20 ADD SWAP2 PUSH2 0x2B4 JUMP JUMPDEST DUP3 ADD SWAP2 SWAP1 PUSH0 MSTORE PUSH1 0x20 PUSH0 KECCAK256 SWAP1 JUMPDEST DUP2 SLOAD DUP2 MSTORE SWAP1 PUSH1 0x1 ADD SWAP1 PUSH1 0x20 ADD DUP1 DUP4 GT PUSH2 0x297 JUMPI DUP3 SWAP1 SUB PUSH1 0x1F AND DUP3 ADD SWAP2 JUMPDEST POP POP POP POP POP DUP2 JUMP JUMPDEST PUSH1 0xB DUP1 SLOAD PUSH2 0x2C9 SWAP1 PUSH2 0x4F4 JUMP JUMPDEST DUP1 PUSH1 0x1F ADD PUSH1 0x20 DUP1 SWAP2 DIV MUL PUSH1 0x20 ADD PUSH1 0x40 MLOAD SWAP1 DUP2 ADD PUSH1 0x40 MSTORE DUP1 SWAP3 SWAP2 SWAP1 DUP2 DUP2 MSTORE PUSH1 0x20 ADD DUP3 DUP1 SLOAD PUSH2 0x2F5 SWAP1 PUSH2 0x4F4 JUMP JUMPDEST DUP1 ISZERO PUSH2 0x340 JUMPI DUP1 PUSH1 0x1F LT PUSH2 0x317 JUMPI PUSH2 0x100 DUP1 DUP4 SLOAD DIV MUL DUP4 MSTORE SWAP2 PUSH1 0x20 ADD SWAP2 PUSH2 0x340 JUMP JUMPDEST DUP3 ADD SWAP2 SWAP1 PUSH0 MSTORE PUSH1 0x20 PUSH0 KECCAK256 SWAP1 JUMPDEST DUP2 SLOAD DUP2 MSTORE SWAP1 PUSH1 0x1 ADD SWAP1 PUSH1 0x20 ADD DUP1 DUP4 GT PUSH2 0x323 JUMPI DUP3 SWAP1 SUB PUSH1 0x1F AND DUP3 ADD SWAP2 JUMPDEST POP POP POP POP POP DUP2 JUMP JUMPDEST PUSH1 0x9 SLOAD DUP2 JUMP JUMPDEST PUSH1 0x4 SLOAD DUP2 JUMP JUMPDEST PUSH0 DUP1 SLOAD SWAP1 PUSH2 0x100 EXP SWAP1 DIV PUSH20 0xFFFFFFFFFFFFFFFFFFFFFFFFFFFFFFFFFFFFFFFF AND DUP2 JUMP JUMPDEST PUSH1 0x8 SLOAD DUP2 JUMP JUMPDEST PUSH1 0x5 SLOAD DUP2 JUMP JUMPDEST PUSH1 0x1 PUSH0 SWAP1 SLOAD SWAP1 PUSH2 0x100 EXP SWAP1 DIV PUSH20 0xFFFFFFFFFFFFFFFFFFFFFFFFFFFFFFFFFFFFFFFF AND DUP2 JUMP JUMPDEST PUSH1 0x3 SLOAD DUP2 JUMP JUMPDEST PUSH0 DUP2 SWAP1 POP SWAP2 SWAP1 POP JUMP JUMPDEST PUSH2 0x3C0 DUP2 PUSH2 0x3AE JUMP JUMPDEST DUP3 MSTORE POP POP JUMP JUMPDEST PUSH0 PUSH1 0x20 DUP3 ADD SWAP1 POP PUSH2 0x3D9 PUSH0 DUP4 ADD DUP5 PUSH2 0x3B7 JUMP JUMPDEST SWAP3 SWAP2 POP POP JUMP JUMPDEST PUSH0 DUP2 MLOAD SWAP1 POP SWAP2 SWAP1 POP JUMP JUMPDEST PUSH0 DUP3 DUP3 MSTORE PUSH1 0x20 DUP3 ADD SWAP1 POP SWAP3 SWAP2 POP POP JUMP JUMPDEST DUP3 DUP2 DUP4 MCOPY PUSH0 DUP4 DUP4 ADD MSTORE POP POP POP JUMP JUMPDEST PUSH0 PUSH1 0x1F NOT PUSH1 0x1F DUP4 ADD AND SWAP1 POP SWAP2 SWAP1 POP JUMP JUMPDEST PUSH0 PUSH2 0x421 DUP3 PUSH2 0x3DF JUMP JUMPDEST PUSH2 0x42B DUP2 DUP6 PUSH2 0x3E9 JUMP JUMPDEST SWAP4 POP PUSH2 0x43B DUP2 DUP6 PUSH1 0x20 DUP7 ADD PUSH2 0x3F9 JUMP JUMPDEST PUSH2 0x444 DUP2 PUSH2 0x407 JUMP JUMPDEST DUP5 ADD SWAP2 POP POP SWAP3 SWAP2 POP POP JUMP JUMPDEST PUSH0 PUSH1 0x20 DUP3 ADD SWAP1 POP DUP2 DUP2 SUB PUSH0 DUP4 ADD MSTORE PUSH2 0x467 DUP2 DUP5 PUSH2 0x417 JUMP JUMPDEST SWAP1 POP SWAP3 SWAP2 POP POP JUMP JUMPDEST PUSH0 PUSH20 0xFFFFFFFFFFFFFFFFFFFFFFFFFFFFFFFFFFFFFFFF DUP3 AND SWAP1 POP SWAP2 SWAP1 POP JUMP JUMPDEST PUSH0 PUSH2 0x498 DUP3 PUSH2 0x46F JUMP JUMPDEST SWAP1 POP SWAP2 SWAP1 POP JUMP JUMPDEST PUSH2 0x4A8 DUP2 PUSH2 0x48E JUMP JUMPDEST DUP3 MSTORE POP POP JUMP JUMPDEST PUSH0 PUSH1 0x20 DUP3 ADD SWAP1 POP PUSH2 0x4C1 PUSH0 DUP4 ADD DUP5 PUSH2 0x49F JUMP JUMPDEST SWAP3 SWAP2 POP POP JUMP JUMPDEST PUSH32 0x4E487B7100000000000000000000000000000000000000000000000000000000 PUSH0 MSTORE PUSH1 0x22 PUSH1 0x4 MSTORE PUSH1 0x24 PUSH0 REVERT JUMPDEST PUSH0 PUSH1 0x2 DUP3 DIV SWAP1 POP PUSH1 0x1 DUP3 AND DUP1 PUSH2 0x50B JUMPI PUSH1 0x7F DUP3 AND SWAP2 POP JUMPDEST PUSH1 0x20 DUP3 LT DUP2 SUB PUSH2 0x51E JUMPI PUSH2 0x51D PUSH2 0x4C7 JUMP JUMPDEST JUMPDEST POP SWAP2 SWAP1 POP JUMP INVALID LOG2 PUSH5 0x6970667358 0x22 SLT KECCAK256 0xA6 BASEFEE CALLER 0x4E 0xB1 0x2C 0xA7 SELFBALANCE PUSH17 0xA8BBD45437BCF119DC89C32F2C6C48DCD4 0xB6 JUMPDEST 0xBE DUP6 0xA9 EXTCODEHASH PUSH5 0x736F6C6343 STOP ADDMOD BYTE STOP CALLER "
				},
				"gasEstimates": {
					"creation": {
						"codeDepositCost": "274000",
						"executionCost": "infinite",
						"totalCost": "infinite"
					},
					"external": {
						"Firstfour()": "infinite",
						"Myblockhash()": "2596",
						"callData()": "infinite",
						"difficulty()": "2426",
						"gasLimit()": "2535",
						"gasprice()": "2536",
						"nowOn()": "2448",
						"number()": "2425",
						"origin()": "2469",
						"owner()": "2527",
						"timestamp()": "2491",
						"value()": "2470"
					}
				},
				"methodIdentifiers": {
					"Firstfour()": "621a38e5",
					"Myblockhash()": "e976f0bc",
					"callData()": "4e417a98",
					"difficulty()": "19cae462",
					"gasLimit()": "f68016b7",
					"gasprice()": "6ec232d3",
					"nowOn()": "22b22ce8",
					"number()": "8381f58a",
					"origin()": "938b5f32",
					"owner()": "8da5cb5b",
					"timestamp()": "b80777ea",
					"value()": "3fa4f245"
				}
			},
			"storageLayout": {
				"storage": [
					{
						"astId": 3,
						"contract": "contracts/StateVariable.sol:GlobalVariables",
						"label": "owner",
						"offset": 0,
						"slot": "0",
						"type": "t_address"
					},
					{
						"astId": 5,
						"contract": "contracts/StateVariable.sol:GlobalVariables",
						"label": "Myblockhash",
						"offset": 0,
						"slot": "1",
						"type": "t_address"
					},
					{
						"astId": 7,
						"contract": "contracts/StateVariable.sol:GlobalVariables",
						"label": "difficulty",
						"offset": 0,
						"slot": "2",
						"type": "t_uint256"
					},
					{
						"astId": 9,
						"contract": "contracts/StateVariable.sol:GlobalVariables",
						"label": "gasLimit",
						"offset": 0,
						"slot": "3",
						"type": "t_uint256"
					},
					{
						"astId": 11,
						"contract": "contracts/StateVariable.sol:GlobalVariables",
						"label": "number",
						"offset": 0,
						"slot": "4",
						"type": "t_uint256"
					},
					{
						"astId": 13,
						"contract": "contracts/StateVariable.sol:GlobalVariables",
						"label": "timestamp",
						"offset": 0,
						"slot": "5",
						"type": "t_uint256"
					},
					{
						"astId": 15,
						"contract": "contracts/StateVariable.sol:GlobalVariables",
						"label": "value",
						"offset": 0,
						"slot": "6",
						"type": "t_uint256"
					},
					{
						"astId": 17,
						"contract": "contracts/StateVariable.sol:GlobalVariables",
						"label": "nowOn",
						"offset": 0,
						"slot": "7",
						"type": "t_uint256"
					},
					{
						"astId": 19,
						"contract": "contracts/StateVariable.sol:GlobalVariables",
						"label": "origin",
						"offset": 0,
						"slot": "8",
						"type": "t_uint256"
					},
					{
						"astId": 21,
						"contract": "contracts/StateVariable.sol:GlobalVariables",
						"label": "gasprice",
						"offset": 0,
						"slot": "9",
						"type": "t_uint256"
					},
					{
						"astId": 23,
						"contract": "contracts/StateVariable.sol:GlobalVariables",
						"label": "callData",
						"offset": 0,
						"slot": "10",
						"type": "t_bytes_storage"
					},
					{
						"astId": 25,
						"contract": "contracts/StateVariable.sol:GlobalVariables",
						"label": "Firstfour",
						"offset": 0,
						"slot": "11",
						"type": "t_bytes_storage"
					}
				],
				"types": {
					"t_address": {
						"encoding": "inplace",
						"label": "address",
						"numberOfBytes": "20"
					},
					"t_bytes_storage": {
						"encoding": "bytes",
						"label": "bytes",
						"numberOfBytes": "32"
					},
					"t_uint256": {
						"encoding": "inplace",
						"label": "uint256",
						"numberOfBytes": "32"
					}
				}
			},
			"userdoc": {
				"kind": "user",
				"methods": {},
				"version": 1
			}
		}
	}
}